:020000041000EA
:1000000000B5324B212058609868022188439860DF
:10001000D860186158612E4B002199600221596106
:100020000121F02299502B49196001219960352056
:1000300000F044F80222904214D00621196600F024
:1000400034F8196E01211966002018661A6600F04E
:100050002CF8196E196E196E052000F02FF8012189
:100060000842F9D1002199601B49196000215960AB
:100070001A491B48016001219960EB211966A021F2
:10008000196600F012F800219960164914480160C1
:100090000121996001BC002800D000471248134993
:1000A000086003C880F30888084703B5996A0420EC
:1000B0000142FBD001200142F8D103BD02B5186610
:1000C0001866FFF7F2FF186E186E02BD00000240BE
:1000D000000000180000070000035F00212200005C
:1000E000F4000018222000A00001001008ED00E03C
:1000F00000000000000000000000000074B24E7A12
:1001000000200420F7010010CB010010CD010010E9
:10011000C9010010C9010010C9010010C901001077
:10012000C9010010C9010010C9010010CF01001061
:10013000C9010010C9010010D1010010D301001045
:10014000C1010010C1010010C1010010C101001067
:10015000C1010010C1010010C1010010C101001057
:10016000C1010010C1010010C1010010C101001047
:10017000C1010010C1010010C1010010C101001037
:10018000C1010010C1010010C1010010C101001027
:10019000C1010010C1010010C1010010C101001017
:1001A000C1010010C1010010C1010010C101001007
:1001B000C1010010C1010010C1010010C1010010F7
:1001C000EFF30580103800BE00BE00BE00BE00BECA
:1001D00000BE00BEF2EB887190020010B402001065
:1001E0003802001090A31AE721482249086006C887
:1001F00081F30888104720480068002801D01C4877
:10020000F3E70DA40ECC002902D000F012F8F9E7B4
:100210001A491B4A002000E001C19142FCD1194952
:100220008847194988471949884700BEFDE701C931
:1002300001C29A42FBD37047B4020010C0000020F4
:100240006C990020609B00107099002024B600205B
:1002500014B80010000004200000042014B800109E
:10026000001004200010042000000000704700006F
:100270000000000008ED00E0000000D024B60020DF
:1002800000610220AD5C0020850D0020A55C0020EF
:10029000FCAA002008AB002014AB002020AB0020FB
:1002A0002CAB002038AB002044AB002048AE00202F
:0402B0003CAE002040
:1002B400F8B5C04606480749091A8B10C90FC91872
:1002C40010B5491003D0044B002B00D0984710BD43
:1002D40024B6002024B6002000000000054B10B511
:1002E400002B03D00449054800E000BFFFF7E2FFFC
:1002F40010BDC04600000000D8CA00206C99002040
:10030400F0B545465746DE464E460023E0B585B077
:100314004B618B61877805000C009046002F62D0FA
:100324004279037912021A438379C6791B04134371
:1003340036061E430021301C03F08AFF00283ED1FC
:100344000021404603F084FF002838D1CC49301CFA
:1003540003F04FFF414603F038FF061C04F01CF87D
:100364008046301C04F006F800906A7A2B7A120258
:100374001A43AB7AE87A1B04134300061843011CA2
:1003840003F020FF011C404603F01FFF01906A7B2D
:100394002B7B12021A43AB7BE87B1B04134300063E
:1003A400B849184303F011FF011CB74804F066F97B
:1003B400052F00D932E2B54BBF00DB599F4680259B
:1003C40000230026002700206D050093009B256074
:1003D4006660A760E360206105B0F0BCBB46B2462E
:1003E400A946A046F0BD80250023002600206D0507
:1003F4000093EBE7FE21009B8905181C994603F046
:10040400E1FEFE21019B061C8905181C984603F099
:10041400D9FEFC21071C8905301C03F0EAFE391CB7
:1004240003F0D3FE9B21C90503F0E3FE03F04AFF6A
:1004340080231B060500391CF01803F0C6FE9B211F
:10044400C90503F0D6FE03F03DFFC02106000906EE
:10045400484603F0CEFE391C03F0B7FE9B21C905C4
:1004640003F0C7FE03F02EFF0090FE2041468005F6
:1004740003F0A5FE391C03F0A8FE9B21C90503F077
:10048400B8FE03F01FFF2F00A0E7019D061C011C0E
:10049400281C03F0AEFE311C071C281C03F095FE3B
:1004A400FE218905814603F08DFEFE2180468905E3
:1004B400381C03F087FE414603F087FE9B21C905E3
:1004C40003F097FE03F0FEFEC02105000906009824
:1004D40003F08FFE414603F078FE9B21C90503F02B
:1004E40088FE03F0EFFE0600FE20391C800503F0B1
:1004F40066FE414603F069FE9B21C90503F079FEBF
:1005040003F0E0FE0700FE204946800503F057FE95
:10051400414603F05AFE9B21C90503F06AFE03F02D
:10052400D1FE009652E7FE218905804603F04AFE7B
:10053400FE21051C8905404603F041FE009B8346CD
:10054400191C9A4603F055FE011C8146281C03F031
:1005540036FE071C404603F0FDFE5146061C281CCF
:1005640003F047FE0090404603F0F4FE4946029033
:10057400281C03F027FE051C404603F0EBFE011C7B
:1005840003F020FE019B191C9A4603F032FE291C3D
:10059400019503F017FE8146404603F0DBFE311C53
:1005A4000390301C03F00EFE514603F022FE391C6A
:1005B40003F008FE414603F01CFE494603F005FE25
:1005C4009B21C90503F015FE03F07CFE414605009E
:1005D400404603F0F7FD0099061C584603F0EFFD72
:1005E400011C301C03F005FE494603F0EEFD9B217F
:1005F400C90503F0FEFD03F065FE029A0600111C16
:10060400101C03F0DFFD514603F0F3FD011C381C00
:1006140003F0D5FD414603F0ECFD494603F0D5FD5A
:100624009B21C90503F0E5FD03F04CFE009907008A
:10063400584603F0C7FDC021090603F0DAFD494618
:1006440003F0C3FD9B21C90503F0D3FD03F03AFE7B
:10065400039B0090191C181C03F0B4FD514603F0D1
:10066400C8FD011C019803F0AAFD494603F0ADFD45
:100674009B21C90503F0BDFD03F024FEA6E6C04698
:10068400DB0FC94000002042000020411CA50020CF
:10069400FE218905804603F095FDFE21051C890590
:1006A400404603F08CFD009B8246191C994603F0DA
:1006B400A0FD011C071C281C03F084FD009040468B
:1006C40003F048FE4946061C281C03F092FD0290E4
:1006D400404603F03FFE391C0390281C474603F0B4
:1006E4006EFD051C381C03F035FE011C03F06AFD89
:1006F400019B191C994603F07CFD291C019503F00C
:1007040061FD8046381C03F025FE311C8346301CF5
:1007140003F058FD494603F06CFD009903F052FDC7
:10072400391C03F066FD414603F04FFD9B21C905CA
:1007340003F05FFD03F0C6FDC02105000906381C67
:1007440003F057FD0299061C504603F03BFD011CC3
:10075400301C03F04EFD414603F037FD9B21C905D3
:1007640003F047FD03F0AEFD039B0600191C181CA3
:1007740003F028FD494603F03CFD011C009803F0FA
:100784001EFD391C03F035FD414603F01EFD9B217F
:10079400C90503F02EFD03F095FD029907005046AC
:1007A40003F00DFD011C03F00DFD414603F00DFDAA
:1007B4009B21C90503F01DFD03F084FD59460090FB
:1007C400584603F0FFFC494603F013FD011C019851
:1007D40003F0F5FC414649E7FE20009B8005191C07
:1007E400994603F0ECFCFE21019B061C8905181CAC
:1007F400984603F0E7FCFC21071C8905301C03F034
:10080400F8FC391C03F0E1FC9B21C90503F0F1FC61
:1008140003F058FD391C0500301C0EE6002080252D
:100824000700060000906D05D0E5C0467A20F0B5BB
:100834004E46DE4657464546834636388246B030F5
:10084400814609308046C938002200218446E0B53B
:100854002E4E8BB0B31C009300205500AD18009CA5
:10086400AD0001925A462B181B01F31821704F4614
:100874009A7152461F72DA7119711A0059714346FE
:100884005372634693723F230130D37211735173D1
:100894009173D17310340C28E4D1009B019AC033B6
:1008A40001320093052AD7D102AC15000021102291
:1008B400200004F0B3F83000154FA5708130154DB9
:1008C40021001022FF300395049704F0ADF8902323
:1008D4009B00F0182100102204F0A6F81022002139
:1008E40006A804F09BF80423A374C0239B001022E1
:1008F400F01806A90795089704F096F80BB0F0BC19
:10090400BB46B246A946A046F0BDC04664D6002008
:10091400F4FD343F0000A04270B51D4E041CB168C4
:1009240003F067FC1B4903F050FC03F0CBFC80236D
:10093400194D9B01984200DD1800F1682860201CC5
:1009440003F057FC134903F040FC03F0BBFC802385
:100954009B01984200DD180068608820211CC005B6
:1009640003F033FC0B4903F044FC316903F02AFC27
:10097400211C03F03EFC074903F027FC03F0A2FC12
:1009840080239B01984200DD1800A86070BDC0461A
:1009940078BE002000007A4488B60020F0B5DE4618
:1009A40057464E464546E0B583B08046FFF7B4FF50
:1009B400154B9B46154B9A46154B994600230193BC
:1009C4005B461F784E4655460024002F09D031005F
:1009D400280042460134FFF793FC10351C36BC4214
:1009E400F5DB01239B44BF339A4490339944019B24
:1009F4000C3301933C2BE3D103B0F0BCBB46B246AD
:100A0400A946A046F0BDC04634A5002064D6002007
:100A1400D4CF0020F0B54546DE4657464E46E0B5F5
:100A24003A4B83B09B5C0D000193002B65D00023EF
:100A34009A46C16802690B00134358D003682C140A
:100A44001E142D041B042D0C1B0CA9466343754373
:100A540066435B19360145691B139B195D1943688D
:100A64002F041E14B0461B041B0C63430E14B4461F
:100A74003E0C00964F461E0043465F43F31947461B
:100A840067431B133F01DB196746009E09049B461D
:100A9400090C2B1477435943C91967465F435B46D6
:100AA4003F010913C9195B1A81694F465B188168B4
:100AB40043610B149C460904090C61438846614652
:100AC4004F434146C91967467C4309132401370043
:100AD4000C1929140E0013141204120C4A435F4318
:100AE4005E43D7193F133601BE19A41B8461012349
:100AF4009A44019B1C309A459BDB280003B0F0BC50
:100B0400BB46B246A946A046F0BDC04634A5002067
:100B1400FE22F8B5304C00219200200003F07EFF45
:100B240026002E4BF022236002230C362C4992001F
:100B34003000A38003F078FF2A4B1A68F3239B004C
:100B4400E250294B1A78F4239B00E254F522274BF8
:100B54009200A21823CB23C203CB03C2FA22244B54
:100B64009200A21823CB23C2FD22224B92001978B3
:100B74000125A1545978204A2048A1549A78204B41
:100B8400E2540233E71801235B42327853400822CF
:100B940059082B405B420340013A4B40002AF7D1ED
:100BA4000136BE42F1D1DB43A360EFF3108572B688
:100BB40080211448490109F0D5F880222100114808
:100BC400D20009F017F985F310880F4B18680F4B02
:100BD400C018431E9841F8BD74CB002031505344D3
:100BE40064D6002030C50020CDCF002078BE002080
:100BF4008CBE002098BE0020F50300002083B8EDD1
:100C0400F603000000F01F0000F01F10CFAFACBBD4
:100C1400F0B5DE4657464E464546E0B58F4B904A02
:100C2400196883B0914200D0B5E09B88022B00D9AB
:100C3400B1E0012301248B4D8B488C4E5B422A7812
:100C440053400822590823405B420340013A4B4079
:100C5400002AF7D10135B542F1D1DB437F4CA268BC
:100C64009A4200D09FE0F0227E498148920003F02E
:100C7400DBFEF3239B00E4587E4B00211C60201C08
:100C840003F0E6FA002800D18FE0802040057A4B7B
:100C9400724E1860F4239B00F35C5A1E9341774A0A
:100CA4001370774A774B31CB31C2110005CB05C1A4
:100CB400B388012B6DD90024734B9A46734B9B4622
:100CC400734B01932300654AFA339B00D55853466E
:100CD400A60000219D51281C03F0BAFA002800D078
:100CE400A9E06C49281C03F0BBFA002800D0A5E059
:100CF4006949281C03F0BAFA002800D0AAE0281C8D
:100D0400664903F076FA011C051C03F072FA80466A
:100D1400011C281C03F06DFAFE21071C8905281C00
:100D240003F050FAFC2181468905404603F061FA3C
:100D3400011C484603F046FA59498046381C03F022
:100D440058FA011C404603F03DFA391C8046281C21
:100D540003F04FFA534903F04CFA011C404603F0E8
:100D640031FA0021051C03F07BFA002867D000202B
:100D74008E21C90503F03DFA03F0A4FA5B469851AD
:100D8400494BE35C5A1E9341019A13550134032CD9
:100D940098D1002000E0022003B0F0BCBB46B2466C
:100DA400A946A046F0BD0320F6E73A49201C03F00B
:100DB40057FA002845D13849201C03F057FA002877
:100DC4004AD1201C354903F014FA011C041C03F019
:100DD40010FA061C011C201C03F00BFAFE21051C52
:100DE4008905201C03F0EEF9FC21071C8905301C41
:100DF40003F0FFF9011C381C03F0E4F92849061C30
:100E0400281C03F0F6F9011C301C03F0DBF9291C43
:100E1400061C201C03F0EDF9224903F0EAF9011C39
:100E2400301C03F0CFF90021041C03F019FA002848
:100E340008D0002007E0802000029FE71B4D281CFB
:100E440096E71A4C201C9B21C90503F0D2F903F044
:100E540039FA1CE7104853E70F48B3E700F01F10B6
:100E6400315053440CF01F102083B8EDF8F31F10D9
:100E740064D6002030C5002070AE0020CDCF002005
:100E840078BE0020D4F31F108CBE002064AE002076
:100E940098BE0020000070C20000A041E3C8EB3DF2
:100EA400ADAA2A3EB4AA2A3DF4F31F10788B6742F8
:100EB400F8B5FFF7BBFC002180220B4B52051960EB
:100EC4000A4B80241A600022094B00201A70002368
:100ED400084F094E094D24029A00B950B450E85401
:100EE4000133032BF8D1F8BD30C5002070AE0020CB
:100EF400CDCF00208CBE002064AE002098BE002020
:100F040010B5192000F0F8FFD024802324069B0498
:100F140063620C2001F054FF0A2001F0DFFD01227E
:100F24000621104801F0BCFE172000F0E5FF8023E5
:100F34001B04636211210C48636105F061F9882286
:100F44000A4B52011A6000F0F5FEFFF761FE00281B
:100F540000D010BD0648FFF721FD0548FFF7DCFC73
:100F6400F7E7C04600A8D45584AE00200000034033
:100F740000803B47F0B5DE46454657464E46D024F2
:100F8400E0B580258BB02406AD04192000F0B4FF31
:100F94000222042165625948656101F081FEFFF770
:100FA400AFFFFA206561400001F098FDFA200121AD
:100FB400400101F01DFF524B524C9946524B06AD75
:100FC4000193524B0293524B9B46524B0393524B09
:100FD4009846524B9A46524B0593524B0493524BAC
:100FE400009310E043461B78002B4DD12368013356
:100FF4002360B3420AD3002380222360D023B9465E
:101004001B069204DA61FA264F46B600012000213D
:10101400404206F0C5F901F0E1FE00F0EFFB3B7839
:10102400002BDFD001991022280003F0FDFC0023DF
:101034003B702B786A785800C0188000029B801897
:10104400000110222900181803F0EEFCEFF31089B8
:1010540072B65B46186803F00EF96B78021CD9006F
:10106400C91A2B7889005800C018C3001B1A1B0129
:10107400C918039B28005918FFF742F989F310880F
:1010840043461B78002BB1D053461B684246994611
:1010940000231370254B994516D0254B994513D041
:1010A400059B1B78002B20D0224B23489946002314
:1010B400049A00991370002200230CC1FFF76EFC00
:1010C400484600F03FF891E7059B1B78002B03D1BD
:1010D400484603F0D0F8EAE701220621174801F058
:1010E400DFFD0023059A1370F2E70122072114485B
:1010F40001F0D6FD0123059A1370D5E700808D5BBE
:10110400CFCF0020D0CA0020245A022064D6002069
:1011140078AE0020D4CF0020D1CF002074AE0020C0
:10112400CECF0020D2CF002028B8002080BB000002
:101134000077010044AC000000442C4700A8D455BB
:1011440000DDAB4970B50400052001F0A3FD03F0F8
:1011540092F8051C200203F08EF8011C281C03F0F1
:1011640034F8EC21890503F02DF8051C03F0DCF8B4
:1011740084B20020002C0ED0200003F07CF8011C67
:10118400281C03F01CF88721C90503F032F803F08A
:10119400CBF8C0B20002C823024A24040443D4504A
:1011A40070BDC0460000305010B5CB7894468A78A4
:1011B4001B021A431C0A4B79002082B0042B0CD06A
:1011C400022B01D002B010BD012C19D0022CF9D190
:1011D400D2B2002A1CD00120F4E7012CF2D104225F
:1011E400614601A803F020FC194A019B1168994249
:1011F400F1D01360174A01201470174A1360E1E715
:1012040063461B7801205A1E9341114A1372D9E791
:1012140001AC61462000023203F006FC0023E25ECA
:10122400B6230B49DB018A80D2181C00131C12B2AE
:101234000A48A24200DB0A4B1AB2D243D217134027
:101244009BB21B0A5B001B5E0120CB80BAE7C04641
:1012540078AE0020D1CF002074AE00203CA6002040
:10126400FF5A000000B5CB784A799C4683B0042A23
:1012740025D00023022A02D0180003B000BD624624
:10128400012A28D0022AF7D14A78012A47D0022A13
:10129400F2D1264B9C466246254B136080235B04A7
:1012A4005360CB798A791B0213431A1C082B00D98B
:1012B400082293B2624606F0D3FC0300DCE7012B5C
:1012C4000FD062460023022AD6D10133194A06F010
:1012D400C7FC0300D0E70123174A06F0C1FC030052
:1012E400CAE74B78012B11D0022B0DD1CA798B7927
:1012F40012021A43131C1A2A00D91A239BB20F4A4A
:1013040006F0AEFC0300B7E70023B5E70C4B01AAD7
:101314001B680193042306F0A3FC0300ACE702233B
:10132400084A06F09DFC0300A6E7C046BCCF002097
:10133400010000A51CA6002080AE002020A60020ED
:1013440078AE00207CAE002000207047002070475B
:101354008A78024B01201A607047C0466CCF002087
:1013640001207047F0B5DE4657464E464546C0223A
:10137400E0B54B1E9BB295B05200934207D30120B7
:1013840015B0F0BCBB46B246A946A046F0BDD34C4E
:101394000A000020210006F0C1FD0028EFD0D04A49
:1013A400136801331360CF4B996ACF4B12911A68BB
:1013B400002A06D0CD4D49198A1ACD498A4200D84F
:1013C40086E1129A80081A60CA4B85B21A68139390
:1013D4000895002A08D00021100005F019FD834665
:1013E400002801D0856005E0C34A13680133136007
:1013F40000239B4601F068FBC04B06009C461A780C
:10140400BF4B0F009846002A03D003CB084300D0FB
:1014140098E1BC4D4346C0C363461A78002A03D101
:10142400B94AC0C201221A70089E0023286869685C
:10143400320012184B410CC5B44BDB881AB2B44BC2
:101444000B921968B34B00911B78DBB20C93331EDB
:1014540000D1C1E1CB170393D3170D9300239A4610
:10146400069305930A930993AB4B26009846AB4B1E
:10147400AB4D0E93AB4BAC4C0F93513BFF3B1193D5
:10148400AA4B10930222B35E009A9B039946002351
:10149400F15E039B8803C91702F074FE0B01070F6A
:1014A400DF190917002900DD10E100D10BE14B1C05
:1014B40000DA97E1013100D191E14846039B009A9B
:1014C400C11702F05FFE0B01000F1818091700295D
:1014D40000DDF5E000D1F0E04B1C00DA62E10131FF
:1014E40000D15CE181460C9B002B00D0CFE05B4631
:1014F400002B00D1DEE0390000228D48FFF78AFA84
:101504000700012249461198FFF784FAFA17BB181D
:101514005340099A81469A4200DA09934B46DA17F6
:101524009B1853400A9A9A4200DA0A93390002221D
:101534000F98FFF76FFA0322070049467D48FFF72B
:1015440069FA079043461B78002B00D09BE0109B60
:1015540038001A68F917D31702F014FE4904C00BB7
:101564000818C317C2185A4091460D9B0B9AC1170D
:1015740002F008FE4904C00B0B18049343465B7841
:10158400002B7DD1694B07985A68C117D31702F015
:10159400F9FD4904C00B0818C317C7180B9A5F401C
:1015A400C1170D9B02F0EEFD4904C00B0918434618
:1015B4009B78002B01D15D4B9B68059A4B464A45AD
:1015C40000DA0593069BBB4200DA06970E98049F47
:1015D40003689A00AF50802292019A189200A95091
:1015E40080220021D2019A189200A95022688027F3
:1015F4009A1AD204520CA95862683F029A1A01330B
:10160400DB04DB0C03605846D204520CD219AA58EE
:1016140000280CD0802753460068BF014068C919D0
:101624009B008913D219C1529213C01842805346A9
:10163400089A01339A460436934200D222E7099B62
:101644005B1308930A9B5913059B5A13069B5B1360
:10165400394D089828806980AA805946EB80002378
:101664002B81002903D0139B186805F0C1FB1D4B87
:101674000A21986A129BC01A01F06AFDA8727EE6DC
:101684000021002793E700239946049376E7FA178D
:10169400BB185340099A9A4200DA09934B46DA1769
:1016A4009B1853400A9A9A4200DA0A935B46002B2D
:1016B40000D03BE70027079344E7002800DB11E74D
:1016C4001E4B99460FE7002F00DBF6E61B4FF4E6AE
:1016D4001B490A6801320A6073E6C046F4BB002065
:1016E40074CF00200040054044C900202FF8FFFFBC
:1016F4007EBB000018CB00206CCB0020D2CF002092
:1017040018B8002028B8002020B8002078AE0020A7
:1017140070AE0020CDCF002098BE002010BF002066
:1017240024DA002074D2002088B6002064AE0020A1
:10173400D4CF0020C4D3002034C50020FFFFFF7F96
:1017440070CB00204346320003CB3B00121A8B417E
:10175400002B03D125498A4200D85AE6002163466A
:101764000020197000210223214DA24628606960DF
:101774002C0000960197994647466546139B002125
:10178400186805F045FB002813D14B46012B0DD1F9
:10179400AC46B846009E019F250054463AE6002810
:1017A40000DA9FE680231B0699469CE601239946AE
:1017B400E4E7C022036892005B68991800221A804B
:1017C4005A8004339942FAD1C0238360139B0100E9
:1017D400186805F00DFBD8E70022002138E7002F38
:1017E40000DA6AE680273F0667E6C04650C3000079
:1017F40028B80020002313707047C046F8B50020B5
:1018040006F082FB234B18601B68002B19D0FA22C8
:10181400214C002320689200810C800301F0D6FC47
:101824001E4B07001B78002B07D01D4B21681D00A1
:101834000CCB002B06D18A4204D83900002006F0D4
:1018440077FFF8BD01F040F9164B0CCB2468801AE1
:10185400994160CD2200002302F094FC0023124A37
:1018640001F0B4FC2D1A8E412B0F310159180A22B4
:101874000023280101F092FC0C4B984200DA180076
:1018840080239B01984200DD1800391A002006F0DD
:101894004FFFD6E770CF002078AE0020D2CF0020D3
:1018A40028B8002020B8002040420F0000E0FFFFCD
:1018B400F0B5137814006022060083B01A40402A61
:1018C40014D05BB2002B06DB012922D0022914D0EC
:1018D400012003B0F0BD0129FAD16378433BDBB2A8
:1018E400142B14D8CE4A9B00D3589F466278012A01
:1018F400E7D1220000F0B0FAEBE7CA4B1B78423B79
:10190400DBB2142BE4D8C84A9B00D3589F4600206E
:10191400DFE76278C34B30001A70E378A178C34ADA
:101924001B020B431380E379A2791B0213432100AA
:10193400BF4A06F095F9CCE7E378A2781B020020B1
:101944001343022AC5D8FF221340BA4AD35CBA4AC9
:10195400210013703000012306F082F9B9E7E3781F
:10196400A2781B0200201343022AB2D8FF2213409C
:10197400B24A9B00D35828E0FFF79AFAB04D286882
:1019840002F079FCFFF70AF8286802F074FCFEF70D
:10199400C3FF0023A84A210013703000013306F06E
:1019A4005FF996E7E378A2781B0200201343042A28
:1019B40000D98EE7FF221340A24A9B00D35804E0CB
:1019C400A14B1B78C3E7A14B1B689B4A2100136002
:1019D4003000042306F044F97BE7E378A1781B0286
:1019E40019431B0A042B92D80F200A09844602408B
:1019F4009748C55C0020954200D86AE76546019087
:101A04000D40022D00D184E100D96EE1002D00D1FA
:101A140075E15900C918890089188E4B0901C91844
:101A2400042201A803F000F8019BCEE7FFF770F849
:101A3400814A012310702100300006F011F948E7B3
:101A4400FFF7E6F8071E00D1DEE07B4A0123210000
:101A54003000177006F004F93BE7E378A2781B0224
:101A64001343092B00D11BE10D2B00D9CAE07A4A9C
:101A74009B00D3589F46E379A2791B021343032B9F
:101A840000D825E76A4B75491868704B186002F056
:101A94009CFB011C724802F0F1FD9B21C90502F078
:101AA400A8FB02F00FFC6F4B186011E7E379A279F1
:101AB4001B0213430F2B00D80AE710226A485C4923
:101AC40002F0B2FF0122694B1A7001E7574B1A88E2
:101AD4001B78022B00D9FBE6E379A1791B020B43A7
:101AE40000D1F5E6FF231340514A1278511E8A4172
:101AF4005049CA54ECE64D4B1A881B78022B00D986
:101B0400E6E6E379A1791B020B43032B00D8DFE659
:101B1400FF24474B14401868484BA400E0504F4939
:101B240002F053FB011C4E4802F0A8FD8E21C905AA
:101B340002F05FFB02F0C6FB4D4BE050C8E63B4BA6
:101B44001A881B78042B00D9C2E6E379A1791B0219
:101B54000B43032B00D8BBE6FF24354B00211D6843
:101B64001440281C02F07CFBA4002B1C002800D08D
:101B74000023344AA350324B186802F07CFBFEF772
:101B8400CBFEA5E6E379A2791B02134300D19FE6BD
:101B9400274B1B785A1E93412B4A137098E6354BFA
:101BA4001B6812E7344B1B680FE7344B1B680CE7C8
:101BB400334B1B6809E7334B1B6806E7324B1B6842
:101BC40003E7324B1B6800E7314B1B68FDE6314BE2
:101BD4001B68FAE6304B1B68F7E6304A1189937AA2
:101BE400D27A1B04120613430B43EEE62B4B9A885E
:101BF400DB881B041343E8E6284B1A885B881B0424
:101C04001343E2E60023E0E60D4D286802F033FBBF
:101C1400FEF7C4FE286802F02EFBFEF77DFE14E7F3
:101C24003CA50020D3CF002090A50020C6CF0020E3
:101C34007CCF002098BE00201CCB00208CBE00204E
:101C440078AE002078BE0020CDCF002030C5002023
:101C540034A5002068D60020E4A500200000A0419F
:101C64000000204170AE0020245A0220CFCF002073
:101C740064AE002078CF002070CF00206CCF00200D
:101C840074CF002070CB00206CCB0020F4CA00205D
:101C9400F0CA0020FCCA0020F8CA002034C5002085
:101CA4001F4B204A1988300011701988090A517095
:101CB400598891705988090AD17099881171998845
:101CC400090A5171D9889171D988090AD171198980
:101CD40011721989090A5172997A9172DB7A210079
:101CE400D3720C2305F0BCFFF3E5032D00D089E784
:101CF4005900C918890089180B4B09018FE658004F
:101D0400C3189B0009499B181B01C9188B780193C0
:101D14005BE65900C91889008918054B09017EE65C
:101D240034C500201CCB002070D6002064D60020CF
:101D34006CD6002010B5C02282B00821174805F0E7
:101D440045F8174C17492060174804F04BFB002353
:101D540004220021206804F021FC00210C2000F062
:101D6400F5FA012004F06CFC6A46012301A9002065
:101D7400938005F09DFAFEF759FD0C48FEF70EFE20
:101D8400002201210A4B9A800A4ADA800A4A117019
:101D94001A680A4B1A6002B010BDC04650AE00204B
:101DA40018CB002058AE00205CAE002000803B47DA
:101DB40078AE0020FF7F0000D1CF002074AE002059
:101DC4000048704764A80020024A0348136801339E
:101DD4001360704778CF0020C0A7002070B500289A
:101DE40026D003282FD8194B8000C458200007F0B0
:101DF40041FDC3B2181C1F2B18D8C021C0B2421C0D
:101E0400D2B25200890011430D00002B18D0104BA0
:101E14009C469A1C0023E15C01331180D9B2023242
:101E24008142F8D3634660461D8070BD1F20E4E7FD
:101E3400074B9C466246074B9D1F5380FF3DF1E7CD
:101E4400034B9C46EEE70020EFE7C046ACA700201A
:101E5400F8B90020090400008C46110062460123F1
:101E640010B5012A03D14A780023012A01D01800B1
:101E740010BD0A7914004A7912022243042A0ED0B2
:101E8400052AF4D1CA798B7912021A43131C8E2ABB
:101E940014D89BB20A4A05F0E3FE0300E7E7CA79C7
:101EA4008B7912021A43131C282A05D89BB2054ABF
:101EB40005F0D6FE0300DAE72823F7E78E23E8E7E8
:101EC400F4A6002084A7002010B54024074A83000C
:101ED4009A181268C0005440C0222240044C1B19B6
:101EE4001A60044BC018416010BDC04604C00140D4
:101EF40004D00140004001400123D0228340120657
:101F040093629361084A83009A18116840225140F1
:101F140080320A400549C0005B181A60044BC0189F
:101F2400052343607047C04604C0014004D001400B
:101F3400004001408023DB051868000F7047C0464D
:101F44000FB400B5084883B004F0CAF8049B002B12
:101F540007D005A91800019103F068FF034804F0B5
:101F6400BFF8012003F07AFF78A8002088A8002099
:101F740010B50148FFF7E4FF8CA80020EFF31080B0
:101F840072B6034A1368002BFCD0BFF35F8F70470F
:101F94002C0100D0BFF35F8F0022024B1A6080F344
:101FA400108870472C0100D070B58C461600EFF3F2
:101FB400108472B60F490B68002BFCD0BFF35F8FFF
:101FC4006346DB08C5180722C05C63461A40012338
:101FD40093401A000240034207D118432870BFF30C
:101FE4005F8F0A6084F3108870BD61463000FFF78C
:101FF400A7FFC0462C0100D0F8B5CE4647468C4614
:1020040080B51C00EFF3108872B61C490B68002BD6
:10201400FCD0BFF35F8FA24221D80723994602E088
:102024000132944218D34946012611408E40D30808
:10203400C718C35C1E42F3D1100033433B70BFF397
:102044005F8F00220D4B1A6088F3108800280EDB86
:10205400C0BCB946B046F8BD01204042EFE7BFF32B
:102064005F8F00230B6088F3108801204042634691
:10207400002BEDD00898FFF763FFC0462C0100D079
:10208400044A1078431CDBB2172B00D910231370B9
:102094007047C046BCAE002000B5054B83B00100BC
:1020A400009318221F230348FFF7A6FF03B000BDC7
:1020B4009CA800209CBE00200021044B044ABFF3CE
:1020C4005F8F02C39342FAD17047C046000100D02B
:1020D400800100D0034BC0188000BFF35F8F002342
:1020E4000360704740000034044B054805491A005A
:1020F400043310608B42FAD17047C04600E400E01C
:102104008080808020E400E01F2318401E3B834031
:10211400002905D0C021044A490053501360704778
:10212400802201498B50FAE700E100E070B50D0010
:10213400EFF3108672B60F4A1368002BFCD0BFF37E
:102144005F8F0D4B10309B6884001B590B4A9342E0
:1021540003D09D4201D000F0DFFE074B9B681D5168
:10216400BFF35F8FBFF35F8F0022024B1A6086F3C9
:10217400108870BD240100D000ED00E0C101001002
:10218400F0B5DE4657464E464546E0B5824683B036
:102194008B461700EFF3108872B6604A1368002B61
:1021A400FCD0BFF35F8F00255D4B5D579946002D32
:1021B40000DA9AE04A466B005A4C5E19B600019365
:1021C400A31900939B791370574B9A6853461033A5
:1021D4009B00D15899460B1B2F2B32D9534B994254
:1021E40000D098E0019B0236ED18514BAD006353CB
:1021F400504BA619043B9B1B4F4A1B055B0D6519ED
:1022040013436B804D4B0121AB80FF23AB715B46C5
:10221400AB60009BEF710B4319004A46424B9B682D
:102224009950BFF35F8FBFF35F8F00223B4B1A605F
:1022340088F3108803B0F0BCBB46B246A946A0465A
:10224400F0BD01200A008243D379B446BB422DD8A5
:102254003B4BB51C190013001B1B5B415943090D73
:102264008C46334B6519A353324B0099043B5B1BDB
:102274001B05314D5B0D2B4304364B80A619131FF0
:102284009B1B1B055B0D1D4363468B715B468B607B
:102294002C4B8D80CF7113600143BEE75800C018EA
:1022A40080002018C679BE4225D902000623D356E1
:1022B400002BF3DA9A46131D9C4623486346009E7E
:1022C4009571043EF61A36051B4B760D1E43019B91
:1022D40096805A1953469200A418A3715B46194A72
:1022E400A0802260E771A36097E700F015FE002547
:1022F4004B465D575EE766469A46131D9C4690889A
:10230400043640050015A6196044801B00050A4EDA
:10231400400D3043D2E700F0FFFD63E7240100D015
:10232400D0CF0020C0AE002000ED00E0C1010010BD
:1023340000A1FFFFF0AE002000E0FFFF01BDFFFFA2
:10234400AAAA00000148804701BD0000084A83088A
:102354009B009B181A6810B5140003221040C0009B
:10236400FC3282409443220081400A431A6010BD2B
:1023740000E400E0F0B5C646012500B504000543BD
:10238400EFF30580EFF3108672B61E490B68002B3D
:10239400FCD0BFF35F8F1C4B21009C461B4B624655
:1023A400891A49414B431B0D59B2194B8000984679
:1023B4009B681B581F000023AF4215D006201056FF
:1023C400884216D001330C32042BF7D1114B1A7802
:1023D4001970A271BFF35F8F00220A4B1A6086F353
:1023E400108880BCB846F0BD43460B4A9B681A501F
:1023F400ECE75A00D318FF229B0063449A71074A02
:102404009A80E3E7240100D0C0AE0020AAAA00000D
:1024140000ED00E0D0CF0020C101001001BDFFFF9E
:10242400024BC918890001607047C046400000345F
:1024340070B5114C114DAC421CD2FF260BE0FFF7D6
:102444001FFE01002000FFF7EBFFA680BFF35F8FA4
:102454000834AC420ED22368002BF0D1FFF710FEF3
:1024640001002000FFF7DCFF2671BFF35F8F083403
:10247400AC42F0D370BDC046D0B50020E0B500201A
:1024840010B50400FFF7FCFD01002000FFF7C8FFB2
:10249400FF232371BFF35F8F10BDC04610B5040046
:1024A4000120FFF7F9FD034BC01880002060BFF343
:1024B4005F8F10BD400000340A4B1968EFF31080A1
:1024C40072B60A68002AFCD0BFF35F8F1B68BFF3A3
:1024D4005F8F00221A6080F3108840BF0020002123
:1024E4007047C04668CB0020F0B5DE4657464E46DE
:1024F4004546E0B587B0EFF3058303221A40B24B9B
:1025040091005B5804921F000123934099464A4668
:10251400AE4B03911A60AE4B05934B46AD484363F3
:102524000823FE5E002E38DABB881BB2002B00DBCA
:10253400A5E0BB79002B00D0E6E00823F95E002972
:1025440021DB4B007A695B18DB00D3189D68DC68DB
:102554006B1C01D1631C0ED09E480399826A091832
:102564000B69AE1A9B1A9E4215D30123026A049882
:1025740083401A420FD0974800F09EFA8C4202DC46
:10258400CBD18542C9D940BF07B0F0BCBB46B246E7
:10259400A946A046F0BD0D61EDE77A697300934644
:1025A4009B19DB009B445B469C68DD6800F084FA61
:1025B4008D42B9DC00D1F2E0002D00DAD7E05A46B2
:1025C4005B4652691B699046059A934200D1C8E064
:1025D4005A460821785E52880004414610439847C1
:1025E400009001910099019A0B00134300D1BEE0C1
:1025F40013000A00002B00DBD5E020002900801A1C
:1026040099415B469860D96000229B5E002B00DAFA
:102614008AE77A695D009246EA18D20052449468C7
:10262400D268A4468A4200DD7EE702D1844200D902
:102634007AE70824A0463B81B8445446BA462F00A2
:102644004546B0463E0006E05E00F218D200A218ED
:102654009768D268BC468A4207DC00D1B0E0F31820
:10266400DB00E518E35E002BEEDA46465A46574691
:1026740013802E80BB881BB2002B00DA59E73A691D
:10268400EFF3108172B61368002BFCD0BFF35F8F99
:102694000123BE885B42BB8036B23B69BFF35F8FC8
:1026A40000221A6081F31088002E00DA41E73B0013
:1026B40008333A0098467D6973009B190824115F1A
:1026C400DB004046EB18002913DB9C689B46A446BC
:1026D400DC6806E0A34240D00023F95E38000029FC
:1026E40006DB4F007F18FF00EF19FB68A342F1DD02
:1026F4005B46068000201E5E1980002EDCDA17007F
:10270400BB79002B00D118E70023BB710823F95EC5
:102714004B1C00D137E73D000835AC467C6903E02B
:1027240084464B1C00D108E74B005B18DB00E01823
:102734000A00E15E43881BB2002BF1DA01256D42E9
:10274400EE178560C66008257B5F9342E9D0634637
:1027540019803B8903803A81E3E7BB686345BBD9B1
:10276400C6E7434640461B699847002823D15B4689
:102774001B883A693B81EFF3108372B61168002914
:10278400FCD0BFF35F8F59467A880A803A697E800D
:10279400BFF35F8F0021116083F31088C4E6844285
:1027A40000D809E7C0E60B4800F086F9009B019CBD
:1027B400C018614125E743460CCB0092019311E711
:1027C400844500D84BE750E708CB00203C70054017
:1027D400F92200200040054010B51D4C2369002B50
:1027E40004D00A211B48FFF71BFE10BD03211A4821
:1027F40000F058F9184BE360FFF742FC174B62698D
:10280400C01803232370D0231B061B688000637049
:10281400134B2061A36001235B42A38010336380C8
:10282400104B138001339BB218320F2BF9D10E4B8E
:102834000320DC600824084B0C491C62FFF776FC7B
:1028440001210320FFF760FC094B1C60C9E7C04667
:1028540008AF002068CB0020004005404000003451
:10286400FFFF1000FFFF000008CB0020F92200202A
:102874003860054070B582B000920193010002698E
:10288400EFF3108472B61368002BFCD0BFF35F8F94
:102894000223C85E0D6900283FDB4A694300160025
:1028A4001B18DB00D218F35A4B80BFF35F8F002351
:1028B4002B6084F31088069B1361079B5361009B74
:1028C400019C9360D460538801335B045B0C1D1C32
:1028D400002B20D0ACB20304558023430D69EFF3E1
:1028E400108C72B62C68002CFCD0BFF35F8F8C88E0
:1028F400148088800A69BFF35F8F002010608CF316
:1029040010880A7801309040CA680849521810604B
:10291400180002B070BD0125DCE7BFF35F8F002310
:102924002B6084F31088013BF2E7C0463C20000092
:1029340010B543890A1493421ADD53009B18426967
:10294400DB00D3180469EFF3108C72B62268002AF6
:10295400FCD0BFF35F8F5A88090494B2090C8A42F1
:1029640008D00369BFF35F8F00221A608CF31088CC
:10297400002010BD094A22435A8001230269837151
:10298400BFF35F8F002111608CF310880278044933
:102994009340C268012052181360EAE70080FFFFE9
:1029A4003C200000F0B5CE46474680B504000D003B
:1029B40085B0EFF305868946002E10D036490020F5
:1029C4004B6AAB4206D38A6A5B1B591E8B41A242F7
:1029D4004041184305B0C0BCB946B046F0BD2F4FC6
:1029E400FB683A7898461800039200F065F8039A59
:1029F400131D42469B009B5822001B1A9C462B0029
:102A0400121A8B419E4210DC0DD020BF224A0020B6
:102A1400536A4B45DED3926A5B1B591E8B41A2421B
:102A240040411843D6E79445EFD900F04DF8220011
:102A34002B00121A8B41002B1BDB00230193184B34
:102A44002200009338002B00FFF714FF002810DD4C
:102A5400114B5A6A4A451CD39B6AA34217D30100FF
:102A64003800FFF765FF0C4A0020536A4B45B1D389
:102A7400D1E7094A0020536A4B45ABD30020926A40
:102A84005B1BA24240415A1E93411843A2E74A45A8
:102A9400E5D120BFE3E7C0460040054008AF002071
:102AA400C922002010B5024A0248FFF77DFA10BD82
:102AB400B8A80020A0BE00200300416A0A00986A5A
:102AC400596A8A42FAD17047034B596A0A00986AD4
:102AD400596A9142FAD1704700400540254B70B5C0
:102AE40098420BD843011B1A234A9B001818916A79
:102AF400C000936A5B1A9842FBD870BDFA22002387
:102B04009200002101F03EFB05000E001A4A536AB0
:102B14001900946A536A8B42FAD1200019002C00E0
:102B2400350024184D41AB4219D9134B5B6A180088
:102B34005A1C0BD0012301246442E5175B420E4961
:102B44004A6A9A42FCD39A42D7D120000A4A02E048
:102B5400516A9942D1D1916A8142F9D3CDE7AB420E
:102B640005D0054A2B00526A9542E8D8EBE7A0420B
:102B7400F7D9DAE79BC4200000400540F0B5D646FB
:102B84004F464646440098462418314BA400C0B52D
:102B9400E41891466368089A8A46934200D26260B8
:102BA400061FF6B2012E2ED9C0238022294F85009C
:102BB4009B0179591201E3181A6000291AD14B4676
:102BC40022685B015340E022134080225201A21884
:102BD4001360012E2FD9802380229B01E318120158
:102BE4001A60089B636043467B51E0BCBA46B14619
:102BF400A846F0BD786900F0ABFA013043001B1819
:102C0400033BFDD2DBE75346012BCDD1C023032286
:102C14009B01E3181A60023AA3681A42FCD04A46A0
:102C2400236852015A40E023134080225201A21823
:102C3400084F1360850050460323216841400B4030
:102C4400136001228240A3681A42FCD0C3E7C04645
:102C540000800040A8BE002070B582B006000D00C0
:102C640018000699140000F073FA069A0300120281
:102C74000092290022003000FFF780FF02B070BDEF
:102C840010B5802482B064000094FFF777FF02B08F
:102C940010BDC046014B8000C0587047A8BE00203C
:102CA400F0B5802406000F00150083B064000122F3
:102CB40001210520134B0094FFF760FF3B00320015
:102CC40000950121104800F023F8290030007943D1
:102CD40000F03EFA05000022022104200B4B009470
:102CE400FFF74CFF2B000022012105200094FFF781
:102CF40045FF022200210620024B0094FFF73EFF0D
:102D040003B0F0BD006CDC0200800240001BB70081
:102D1400F0B5C646040000B52348160098460D00D9
:102D240000F016FA0100300000F012FA4346069A49
:102D34001B04120313439C4623680600002B22DB6A
:102D44001A4B1B48E218531E9A4180235242120B1D
:102D54009B011203D218174B1A60174B1A60130009
:102D640001688B43FBD12122144B2560E318A66034
:102D74001A602268002AFCDA6246E26008221A60BD
:102D840080BCB846F0BD3F2322681340AB42D7D184
:102D9400A3681B051B0D8342D2D1EE22E368D20245
:102DA40013406345CCD1EBE7001BB7000040FDBFE7
:102DB40008C0004000E0004000F000400430000083
:102DC400044B00011B68044A5840F023034013607D
:102DD4007047C0460040064000500640024B1A6847
:102DE400024B5A607047C046CCCA002000800540A0
:102DF400194B1A4A10B5DA618022194BD2051A60B0
:102E0400184C194A146000290AD0E022174BD20446
:102E14001A60002809D18022144B12061A6010BDD2
:102E2400E022D2041A600028F5D043011B1A9B004B
:102E34001818802300015B04984209D203000C4A4D
:102E440013608022044BD2055860084B1A60E6E7F1
:102E5400084B1800F3E7C046008005402131B76AEB
:102E640000B00540FCFF01000820014000A005401F
:102E7400CCCA0020FFFFFF008023024A9B000B43C3
:102E8400D362704700800540002310B50100988A82
:102E94001B8B984710BDC046162310B50100188837
:102EA4005B88984710BDC046F8B54746CE4680B506
:102EB4000F1E18D01423994604330400002501265C
:102EC40098464B461888434621681B88984701C496
:102ED400431E984101350640AF42F2D13000C0BCD8
:102EE400B946B046F8BD0126F8E7C046AA23064A0B
:102EF4001B0113608D235B00D3600449044B1960EC
:102F04005368002BFCDA70470040024000B0FA001E
:102F1400006002407047C04610B50148FFF710F842
:102F2400DCA8002070B5074D074EB54209D2002435
:102F3400013E761BB608013608CD01349847B442E9
:102F4400FAD170BDE0B500201CB60020054B064A3E
:102F540006491A60064A074B1A6010000B6898432A
:102F6400FBD1704700E00040BFCDFBFE08C000402D
:102F7400FE7F3C0000F00040044BDB6C002B03D1CF
:102F84008022034BD2021A607047C04600001150E1
:102F94004C201150044A054B1A60054A1368DB01A2
:102FA4008033FBD17047C046FFFFFF0100F00040B3
:102FB40008C000404022034B9A675A671A67DA66D2
:102FC4007047C04600F0014010B5FFF775F810BD1A
:102FD4000C4B0D4970B55D1AAC1022000B4E302C11
:102FE40000D930223000920001F01EFDBC2D05D81E
:102FF400074A7519013404C5302CFBD1054B9E607A
:1030040070BDC046C0010010000100100000002087
:10301400C101001000ED00E0002310B5294C82B07E
:10302400A367FFF763FF0122274B1A60636C012B30
:10303400FCD10322254B1A60224A936B012BFCD14D
:10304400013300930121224A22480433FFF760FE32
:10305400052301210093204A2048FFF759FE00224E
:10306400022104201E4BFFF70BFE00220121052044
:103074001C4BFFF705FE0022002107201A4BFFF727
:10308400FFFD002200210820174BFFF7F9FD8023E4
:10309400DB000093002200210920134BFFF7DCFD25
:1030A4000022104B00210620FFF7EAFD0420FFF761
:1030B400F1FD0E4900F04CF801000020FFF7DCFEA2
:1030C40002B010BD008000403CB0004030B0004071
:1030D400002F685900800240008C864700C00240DF
:1030E400001BB70040597307006CDC0240420F001C
:1030F40001480421014B184720AF0020B92C0020BF
:10310400124A936F9B0815D29066D166002905D0A8
:10311400FFE7FFE7FFE7516F106F704704B58021A9
:103124000906C2175140002800D0C84306F03AF8F7
:10313400002104BDF0B5146E556E576F166FFFF77E
:10314400E3FF1466556657671667F0BD000000D0AC
:10315400114A936F9B0813D210665166002905D05B
:10316400FFE7FFE7FFE7516F106F704704B50028D2
:1031740001D00020C04306F015F8002104BDC0466C
:10318400F0B5146E556E576F166FFFF7E5FF1466B2
:10319400556657671667F0BD000000D094464A4A4A
:1031A400926F9208624601D228E0C046F0B5464EBE
:1031B400346E756E776F366F00F020F89446424A8D
:1031C40014665566576716676246F0BD94463E4AD4
:1031D400926F9208624601D254E0C046F0B53A4E6E
:1031E400346E756E776F366F00F04CF89446364A3D
:1031F40014665566576716676246F0BD002B24DBDC
:1032040011D000293EDA00B5C943404200D1013152
:1032140000F038F8C943404200D10131DB43524247
:1032240000D1013300BD002AEBD1002801D10029CF
:1032340005D00020C90FC90701D1C043410800B51A
:1032440005F0B0FF0022002300BD00B500290ADB11
:10325400DB43524200D1013300F014F8C943404229
:1032640000D1013100BDC943404200D10131DB43EB
:10327400524200D1013300F005F8DB43524200D141
:10328400013300BD002923D1002B18D1002A0CD012
:10329400BC460D4F38667A6600210023FFE7FFE73E
:1032A400FFE77A6F386F67467047002801D00748F8
:1032B400010000B505F076FF0022002300BD0200E6
:1032C4000B00002000217047000000D0FFFFFFFF2B
:1032D400002B00D0BFE0130C28D1002AE7D080B423
:1032E400114F39667A66FFE7FFE730B4040C7B6F51
:1032F400396F1B0423433B667A66FFE7FFE7FFE76A
:10330400C04684B27B6F3D6F1B0423433B667A66E1
:10331400FFE7FFE7C04600232C042D0C7A6F386FBB
:1033240000196941B0BC7047000000D0F0B5944664
:103334000025140E01D112020835140F01D1120117
:103344000435940F01D192000235D40F01D15200FB
:103354000135D40B0134254F7C66254C3C660E0C9C
:1033640093B2FFE7FFE7FFE73C6F6643360C770352
:10337400BE467343DF0B5B04C01AB941130C73439D
:10338400DB18C91ACE086643360CB64493B27343AD
:103394001F0F1B01C01AB941130C73431F0B1B05EC
:1033A400C01AB941860D8F023E436643360C092D7F
:1033B40024DB520A7243801A7703460A6643360CAA
:1033C40016235B1BDE40DF40BF1964466643821B45
:1033D4007046043506330100D940A840C01900D313
:1033E4000131A24206D20023F0BD0000000000D04B
:1033F400FFFFFFFF121B0130F3D3F1E709277F1B07
:10340400FE406446A2B27243801A00D20139220CF3
:103414007243130C1204821A99410B00704604354E
:1034240013370100F940A840801900D30131002B63
:1034340002D1A2420AD2F0BD013000D30131121BE5
:10344400FAD2013BF8D1A24200D2F0BD013000D340
:103454000131121BF7E7F0B51C0C00D080E00CB46E
:1034640000251C0A04D11B02160E33431202083530
:103474001C0B04D11B01160F3343120104359C0BA2
:1034840004D19B00960F334392000235DC0B02D12A
:1034940092185B4101351C00971864410134464F72
:1034A4007C66464C3C660E0CFFE7FFE7FFE7C04630
:1034B4003C6F6643360C7703BE4697B27743C01B16
:1034C40000D20139C01B00D201399FB27743C91B16
:1034D400C91B170C77437E04FF0B801BB941CE0830
:1034E4006643360C0C2D33DBB644120B1F053A43EE
:1034F4001B0B97B27743C01B00D201399FB27743AD
:10350400C91B170C77433E043F0C801BB941860D41
:103514008F023E43664329277F1BFE400C3D7746BE
:10352400AF40BF1930BCA2B2ABB272437343801A2E
:103534009941220C7243130C1204801A994102001F
:103544000B000137001BA941F9D2781E0021F0BD00
:103554000C277F1BFE4077467F0BAF40FF19E0E747
:1035640000245D1C07D0144F7D663966FFE7FFE732
:10357400FFE7FFE73C6F95B29EB265436643401B8D
:10358400B141150C1E0C6543664336042F0C3E43B3
:103594002D04401BB141994204D202000B002000CB
:1035A4000021F0BD01D19042F7D3801A9941013432
:1035B4009942F2D3F6E70000000000D0FFFFFFFFBE
:1035C40048404140484018B41B4B5B68FC4601939B
:1035D40008BD04DF8F36002018B4174B1B68FC4667
:1035E400019308BD00DF993600209446134A926F78
:1035F400920809D2624618B40F4BDB68FC4601936B
:1036040008BD0CDF513900200C4AF0B5146E556E1C
:10361400576F166F6246FFF7EEFF084A1466556649
:1036240057671667F0BD18B4034B9B68FC460193BB
:1036340008BD08DFF5370020345A0220000000D00E
:10364400FFB550404240504059404B40594000E083
:10365400FFB5154F4C00640D03D0BC4204D10C03DC
:1036640014D80020090D09055C00640D03D0BC4288
:1036740004D11C030AD800221B0D1B0501264B4054
:1036840009D44B4003D58B4200D18242FFBD9942FD
:10369400FCD19042FFBD0B43DB1803431343F5D029
:1036A400C9434918FFBD0000FF07000000B5FFF73C
:1036B400CFFF804100BDC04600B5FFF7C9FF01D967
:1036C400002000BD012000BD00B5FFF7B9FF01D9FE
:1036D400002000BD012000BD00B5FFF7B1FF80410F
:1036E40000BD012040054A00121804D85A001218DF
:1036F40001D80020704701207047000000210028F5
:1037040005D17047C1174840401AFAD0C90713B50C
:10371400064B1B6898470CBC441CA2401005120BB6
:103724000349091B09051943114310BD64CB00204B
:103734001F04000010B54C00620D8023D218DB007A
:10374400D21A5B057E2A10DD9E3A13DACC170903E0
:10375400490819435242D140640001341532202AE9
:1037640005DAD0400843604310BD002010BD084670
:10377400604310BDC80FC018013810BD18B4044B05
:103784005B6AFC46019308BD24DF013B0020000076
:10379400345A022018B4044BDB6FFC46019308BD75
:1037A4007CDF813B00200000345A022018B4044B13
:1037B400DB6CFC46019308BD4CDF2D3D002000006E
:1037C400345A022018B4044B1B6DFC46019308BD07
:1037D40050DFC93D00200000345A0220132370B585
:1037E4001C78012C19D014DD1248FFF755FB060094
:1037F4001148FFF751FB114D80223100280001F0E0
:1038040013F9022C13D00E48FFF73EFB0D4B186042
:1038140070BD0D4A094DAA64F5E7084D0A4A29000E
:103824002B00803104C38B42FCD1AA64EBE7064A27
:10383400AA64E8E75344000053460000345A0220C7
:103844004C33000064CB00205D36002007B5604691
:1038540001880A0A0230DF2AFAD1C9B2820804D3E5
:10386400028840880004104300E00068014A505078
:10387400039007BD345A02200FB403BC0CBCF0B54E
:103884000124E407634000E0F0B50C0DCF0F661E81
:103894003605891B640503D3C943404200D3013173
:1038A400640D03D0661CF60A07D0E41B00207F00D9
:1038B400791C89078912803C24031D0DDF0F6E1EBD
:1038C40036059B1B6D0503D3DB43524200D3013302
:1038D4006D0D03D06E1CF60A07D0ED1B00227F008D
:1038E4007B1C9B079B12803D2D032F1B661B58D40A
:1038F400A446202E46DA20371400BC401D00BD40EB
:10390400F24033412A4380185941CB0F05D0C943B3
:10391400C043002264425041514162464D0D28D1BA
:103924000D0D07D100281FD0241940414941013A07
:103934000D0DF9D0640006D3013000D30131002C01
:1039440001D140084000013A0BD4941CE40A04D18C
:1039540012051144DB071944F0BDD907204B194364
:1039640000E0D9070020F0BD0029DDD1002CDBD117
:10397400F0BD0132C6074008CD0728434908002E90
:10398400E1D0D9E73C2E29DA203E40371400BC4070
:1039940000D00124F24014431A00BB401C43D31747
:1039A400ACE7AC46202F08DA20360400B4400D0002
:1039B400B540F84039412843A5E73C2F0CDA203FB5
:1039C40040360400B44000D00124F8400443080009
:1039D400B1400C43C117EAE710001900002494E732
:1039E4000000F07FF0B50C0D661E3605891BE60A53
:1039F4006405640D02D0651CED0A04D00020012189
:103A04000905803C2403A4461C0D671E3F05DB1BEF
:103A1400E70A6405640D02D0651CED0A04D0002297
:103A240001231B05803C24037740644497B484B28B
:103A340096B27443070C7E43150C6F4380B26843FF
:103A4400361802D3012000043F183004350C001945
:103A54007D41844688B29AB250430C0C62431F0CD9
:103A64007C438EB27E43921902D301263604A419F4
:103A74001604170C3618674101BC81B29AB251433F
:103A8400040C62431B0C5C4380B25843121802D3EB
:103A94000120000424181004130C401863412D184D
:103AA4005E410020474106BC88B293B258430C0CD7
:103AB4006343120C544389B251435B1802D301216E
:103AC4000904641819041A0C091862416D18564146
:103AD4000020474118BCF902720D1143F0026A0D2F
:103AE4001043ED020A0D03D16D1940414941013BD8
:103AF400124E9B1B7600B3420ED26D0007D30130E9
:103B0400002671416646354301D1400840001B053B
:103B1400C918E4072144F0BD0BDA013306D10130A2
:103B240004D101314F0D01D04908F2E7E10700202B
:103B3400F0BD013631050020EBE70000FF03000073
:103B4400F0B51C0D671E3F05DB1BE70A6405640D19
:103B540002D0661CF60A04D0002201231B05803C17
:103B64002403D0252D060026F6432E661E096E6614
:103B7400CE0FF619B44649004F0D02D07E1CF60A4A
:103B840003D000200021403F3F033E1BB600B44455
:103B9400013F7F05C91B49082E6F013676089C0238
:103BA400950D25437543ED137543AD1301356D1024
:103BB400F603761B0CB4CC02450D2C43A2B2B3B26F
:103BC4005A43270C7B43350C6F43A4B26C431B1937
:103BD40002D3012424043F191C041D0CA4187D41A4
:103BE40024196D41009A91B2ACB26143170C7C4325
:103BF4002B0C5F4392B25A43A41802D3012212043D
:103C0400BF182204230C52187B41019C6C431B19DE
:103C1400520ED9010A434401A01A81B2B2B25143EF
:103C240003145A43360C734387B27743D617D21919
:103C340000277E4136049B191704160C7F185E4139
:103C44007316ED18F301002680337541A90F06D1D0
:103C54006400690AE8055B0A184309D22FE00422CC
:103C6400944480337541A90AA8059B0A184326D3B6
:103C7400404149412404009A019B0D005543641BB3
:103C84004343E41A95B286B27543170C7E43030C82
:103C94005F4392B25A43B61802D301221204BF18EA
:103CA4003204330C52197B4152429C41002C02D401
:103CB4000022013051414008CA071043490802B0AC
:103CC4006246D7079210084BD218084B9A4203D287
:103CD40012058918C919F0BD0020002A01DC390039
:103CE400F0BD01331905F5E7FD030000FE070000F0
:103CF400002200B5203200F004F8080000BD0000E6
:103D040000220B150AD410B5944600F0A7F8141439
:103D1400013400DA0021CB17144C20470020002185
:103D240070476244343A0CD40C2A07DA04009140F8
:103D3400904052422032D440214310BDD843D9434D
:103D440010BD203207D40C46944052422032114117
:103D5400D040204310BD0800C917203203D452427A
:103D64002032104110BD1800190010BD333B002053
:103D74004A00520D144BD21A13DDFF2A1EDAD20563
:103D8400CB0FDB071A43C300400F0903490A08435A
:103D940010435B0001D301D0013070474308FBD2CC
:103DA400704702D0C80FC00770470A0312130132CC
:103DB400F8D1420F072AF5D1012200E0FF22C80FF3
:103DC40000028018C00570478003000000210A002B
:103DD400002104E000210A00C11704E000220023AE
:103DE40006E0C0460022CB1758405940C01A9941FA
:103DF40030B5184CA21A002903D1010010D00020BC
:103E0400203A4C1512D104D2013A001849414C0D04
:103E1400FAD3114CA24204D212058918DB07C9183F
:103E240030BDD243520D00200021F5E703D4013AFE
:103E340000184941FBD50B324405C00A4D052843FF
:103E4400C90A640003D0002460416141E1E7E0D382
:103E54004408F8E732040000FE0700000A0DCC0F06
:103E6400531E1B05C91A520503D3C943404200D34C
:103E74000131520D03D0531CDB0A07D0121B002062
:103E84006400611C89078912803A1203014BD21A1B
:103E940070470000FF030000023225D40C2A1CDA0C
:103EA4001125AD1A0B002B41083207350600EE40F0
:103EB400904091403143F0CC63431A1500235A419A
:103EC400554356435743BF02F412760576196741AA
:103ED400ED177F19801BB94170470C220020C917C8
:103EE400490001310905DBE70902030E1943000209
:103EF4005342203208D40C0019419440D840204346
:103F040000225041514170470800C917203B20321C
:103F1400F1D500200021002270470000F0B5FFF722
:103F24009DFF54A4FFF7B8FF002904DA204C214D6B
:103F340000196941013A04B4012752A60022012361
:103F44009B0730CEB446001BA9410BD47E422036D9
:103F54001D003D411C00B4401600FE403443624144
:103F64006B4101E00019694166460137212FE8D110
:103F740085B29EB2754307147E43190C4F4384B235
:103F84004C43F11736190024614109047F183404A5
:103F9400310C64197941A40F8800204389178018D3
:103FA400594104BC52423E32FFF71DFFF0BD0000F0
:103FB4006BDE73F4FD855C2CF0B54F0050D27F1599
:103FC4004ED001374FD0FFF749FF04B44902C20D68
:103FD4001143400201272BA6B446002200237E424F
:103FE40020360D003D410C00B4400600FE40344331
:103FF40044414D41AE0F05D120002900664630CE24
:10400400121BAB410824A4440137212FE7D18900B6
:10401400891012184B4180BC17A413CC0137784384
:1040240079437C434F05C912CD17C0196941A702D2
:10403400A415CD17C9196C41DD17801859416C417D
:104044003E22CD17AC4208D000090E0730430909BF
:10405400260731432411043AF3E7FFF7C4FEF0BD09
:1040640002490020F0BD02490020F0BD0000F0FF2D
:104074000000F07FAAB800006BDE1300A3EF0F006E
:1040840021170B00F34B98BFEC23F319D6104DCD39
:10409400E3FB470E7AB9BC8ADBC18907CC542C02F6
:1040A4001846E103053083E7B029F8011E1FE087B5
:1040B4004505FE00249E41ACA9807F00811762451E
:1040C40015E03F00E610ABA902F81F0088584555DB
:1040D40000FE0F00C4AAA90A80FF07005645550137
:1040E400E0FF0300ABA92A00F8FF010045550500D5
:1040F400FEFF0000AAAA0080FF7F0000551500E023
:10410400FF3F0000AB0200F8FF1F0000550000FE57
:10411400FF0F00000B0080FFFF0700000100E0FF1D
:10412400FF0300000000F8FFFF0100000000FEFF95
:10413400FF0000000080FFFF7F00000000E0FFFFA1
:104144003F00000000F8FFFF1F00000000FEFFFF1B
:104154000F00000080FFFFFF07000000E0FFFFFFEB
:1041640003000000F8FFFFFF01000000FEFFFFFF57
:10417400000000000000008000000000000000407B
:104184000000000051434343C9188C46110C83B20C
:104194004B4310B4040C614392B280B25043624367
:1041A4001C041B0C001910BC59411304120CC01838
:1041B40051416144704700004840414048400E4B23
:1041C4005B6818470C4B1B6818470C4A936F9B0895
:1041D40002D2094BDB681847F0B5146E556E576F61
:1041E400166FFFF7F6FF054A14665566576716679C
:1041F400F0BD014B9B681847345B0220000000D0DF
:1042040007B548404140484001E0C04607B5420078
:10421400120E03D0FF2A03D1420218D8C00DC005E4
:104224004A00120E03D0FF2A03D14A020FD8C90D47
:10423400C9050122414005D4414001D5814207BD51
:10424400884207BD0143491801D0C043001807BD87
:1042540000B5FFF7DBFF01D0002000BD012000BD49
:1042640000B5FFF7D3FF804100BDC04600B5FFF79E
:10427400C7FF804100BD491A002807D1084670478E
:10428400C10FC90700D54042002817D0F44603B433
:104294000B4B1B68984706BC81409E3840428031D6
:1042A40007D20B0607D04900490AC005104308434A
:1042B40060470130F8E7490A8902F5E770470000D2
:1042C40064CB002041000A0E80231B067E2A0BDDEE
:1042D4009E3A0BDAC1174002400818435242D040BC
:1042E400490001314843704700207047C00FC0188F
:1042F40001387047C0420DD300B54000400800218A
:1043040000F012F8002801D4404200BD80200006CD
:1043140000BD0000034BDB69FC4618471CDF354732
:1043240000200000345B0220014B5B6A1847000048
:10433400345B0220014B1B6B18470000345B0220E6
:10434400034BDB6FFC4618477CDF4D470020000021
:10435400345B0220C11502D4054B9B691847C8433E
:10436400FF2801D1C0077047C817C0057047000077
:10437400345B02204100090E862902DA044BDB6B10
:104384001847044900B500F0B1FA02BC8E46F5E7BF
:10439400345B0220DB0FC9404100090E862902DA92
:1043A400044B1B6C1847044900B500F09FFA02BC8B
:1043B4008E46F5E7345B0220DB0FC940132310B5AA
:1043C4001C781148FEF768FD012C0BD004DD0100B8
:1043D40080220E4800F028FB0D48FEF755FD0D4BDA
:1043E400186010BD094C01005422200000F01CFB91
:1043F40023002100084A5433803104C38B42FCD18A
:104404002262E261E8E7C04653460000345B0220C2
:104414004C33000064CB002009470020F8B5CE4699
:10442400474604000E001500994680B5002A2BDD8E
:104434000120C9114042FEF78BFE002184461D2055
:104444002A000C2D00DD0C22674663127B43871A79
:104454003B41944001335B1027001C00914074439E
:10446400C9183C1BAD1A002DEADCA6420FDCA01BC8
:10447400864218DC801B02314B46002B00D01960A9
:10448400C0BCB946B046F8BD884209DA0021201EF6
:10449400F2DAA01902D580190239EDE70139EBE708
:1044A400401A0121E8E70131E6E7C046F0B5D646F7
:1044B4004F4646460C00C0B5051C012954D0CB0F0D
:1044C4005B185B101F00012B46D00323CA1713404F
:1044D4005B189B109846012B36D0072313405B18BA
:1044E400DB109946012B29D00F2313405B181B11B5
:1044F4009A46012B19D01F2313405B185E11012E1D
:104504000AD03F21114009198911FFF7CFFF011C7F
:10451400FFF76FFEF30730D4011CFFF76AFE534622
:10452400DB0702D5291CFFF764FE011CFFF761FEBF
:104534004B46DB0702D5291CFFF75BFE011CFFF786
:1045440058FE4346DB0714D4011CFFF752FEFB0759
:1045540002D5291CFFF74DFE011CFFF74AFEE407B4
:1045640002D5291CFFF745FEE0BCBA46B146A84671
:10457400F0BD291CFFF73DFEE6E7291CFFF739FED5
:10458400CAE7C046F8B50400061C0D1C002816DA5C
:104594004B001B0E7F3B172B0DD801201722010067
:1045A400D21A91400139294205D1002B2DD02B007C
:1045B400D340184229D180231B06E418261C281C4A
:1045C400FFF780FEFF232200DB0501001A401C4296
:1045D40003D09A4201D063022ED0031E3DD0203373
:1045E400402B1CD9301CFFF7ABFEFFF7EBF806009D
:1045F4000F00281CFFF7A4FE32003B00FFF713F85E
:10460400FFF7D4F8FFF7C6F808E080231B06E0188C
:10461400291CFFF7B7FF80231B06C018F8BD041E32
:1046240006DAFE20311C8005FFF7CFFD6142061C2F
:10463400301CFFF73BFFF1E70F4B984212DBFF28DA
:104644000EDCE40D7F3C604303007F33002B10DD60
:10465400FE2B09DDFF20C005E0E7FE208005DDE735
:10466400FF20EEE71800ECE7FE23C0059B05C01809
:10467400D4E70020D2E7C04600FFFFFFF0B50E1CD0
:10468400FE2183B08905051CFFF7E2FD2C1C0028E0
:1046940028D1FF27FF053B0033400193374224D044
:1046A4005949281CFFF7D4FD002821D0019BBB42A7
:1046B4001BD0F30DFF2B52D0534CFF210A001A409C
:1046C40019420AD07F3A52D4162A06DC17239A1AC2
:1046D400163B9340013B334249D1311C281CFFF760
:1046E40051FF041C201C03B0F0BDFE24A405F9E70F
:1046F4002F4214D1F30D002E19DB7F3B172B0CD85E
:10470400012017220100D21A91400139314204D10B
:10471400002BE7D0D6403042E4D10024E2E7EA0D92
:10472400FF2A3AD1002EF8DBFF24E405DAE7FF2262
:1047340013407F3B172BF7D801200100E83AD21A27
:10474400914001393142EFD1002B02D0D6403042A2
:10475400EAD0FF24ED0FED07E4052C43C2E78022E5
:10476400FF32FF2313407E2BDED80024BAE7002C4F
:10477400DADB281CFFF7E4FDFFF724F804000D0042
:10478400301CFFF7DDFD22002B00FEF74CFFFFF786
:104794000DF8FEF7FFFF041CA4E71C49F30D8A4241
:1047A40009D0FF2BDDD08B4200D086E7FF231340D6
:1047B4007E2BB9D9B1E7002E11DB7F3B172BB3D881
:1047C4000122E939FF39C91A8A40013A3242ABD190
:1047D400002B02D0CE40F607A6D50D4C82E7FF226F
:1047E40013407F3B172B98D81721FE3AC91A8A40E9
:1047F400013A324291D1002B02D0CE40F6078CD53B
:10480400802424066EE7C046000080BFFF0100003C
:10481400000080FFF0B5CE46474680B51400420044
:1048240083B0031C0D1C120E002C01D0002121604A
:10483400FF2A3FD06900090E3CD0002A3DD0181C45
:10484400FF2932D04E1E8846B44696422DDCDE0F38
:10485400B14680265B025B0A36041E43370080267D
:104864006B025B0A36041E43944528D04B46002B4A
:1048740000D07F42521A01AB31003800FFF7CEFD61
:104884004300B34226DD019B0133801B0193002DBD
:1048940002DA019B5B420193002C01D0019B23604F
:1048A40096214346C91AFFF745FD03B0C0BCB9467B
:1048B400B046F0BDFF20C005F7E70020F5E7B7429A
:1048C400F3DD4B467000002B0AD101339046381AB1
:1048D4000193DCE7B342DAD1019BDA07D7D5D3E7FA
:1048E40001235B429046C01B0193D0E710B5002220
:1048F400FFF790FF10BDC04607B5604601880A0A5D
:104904000230DF2AFAD1C9B2820804D3028840886F
:104914000004104300E00068014A5050039007BDB2
:10492400345B02200021C2158032803201D0024A59
:104934001047002070470000CD2A0000C30FDB079A
:1049440041000A0E07D0FF2A08D00909054A891830
:104954001943400770471900002070470249C918DD
:10496400FAE70000000000380000F07F70B5040092
:104974000A4E300005F0F4F8200004F07BFC05003A
:10498400300005F093F9002D05D0054B2C199C42FD
:1049940001D8280070BD0348FDF7D2FAD0B5002035
:1049A40000000420E8A80020F8B507000C000C4E15
:1049B400300005F0D5F82100380004F0F5FB0500BF
:1049C400300005F073F9002D06D07C43054B2C19FB
:1049D4009C4201D82800F8BD0348FDF7B1FAC0464F
:1049E400D0B5002000000420E8A8002070B5050020
:1049F400054C200005F0B4F8280004F045FC200024
:104A040005F054F970BDC046D0B50020014804211A
:104A1400014B184730AF0020B92C0020014B1B6814
:104A24001847000030AF0020014B5B6818470000B6
:104A340030AF00207047C046F8B5DE4657464E46B4
:104A44004546E0B599460D9B0700884693469B076B
:104A540028D00B9B002B3CD016000B9C0A9D3619CA
:104A6400321B013C4B464146285DB847002CF7D128
:104A740035000D9B9B070ED55B46EC1A0C9BA3429D
:104A840009D91E002A004B46414620200134B8476C
:104A94000135B442F6D32800F0BCBB46B246A94661
:104AA400A046F8BD0B9B0C9A934214D213005D46AA
:104AB4000C000B9A9E1A76192A004B4601352100E8
:104AC4002020B847B542F7D10B9BA046002BC4D198
:104AD400E1E71500CDE70B9B5E46002BBDD15D469B
:104AE400D9E7C046F0B54F46D6464646C0B584B071
:104AF4009C460EAB1F78129B9146BA460D9C109EA5
:104B0400119D9B074DD4002D42D1B44249D20123BB
:104B1400129F1F40B8460C9B5F1E302303E00134F4
:104B24003B55A64201D9202CF9D14346002B00D194
:104B340089E00C9B5F1E3023A54204D831E0013488
:104B44003B55AC422DD0202CF9D1129BDB060ED55F
:104B5400129B5B0558D4A64268D0A54266D00F9B31
:104B6400102B54D00F9B022B5BD0202C36D120234A
:104B7400129C01930C9B4A4600930394634602954E
:104B8400FFF75AFF04B0E0BCBA46B146A846F0BDF0
:104B94000123129A13409846012313422DD1B442A3
:104BA400B9D3129BDB061ED5129B5B05D7D4002C10
:104BB400D1D10F9B102B62D00F9B022B73D03023CB
:104BC40001240C9A13705346002B11D1129B5B07DE
:104BD40041D52B260C9A631C1655C9E723000134D2
:104BE40030260C9AD654202CC1D05346002BEDD03D
:104BF4002D260C9A631C1655BAE7002F35D0013DBB
:104C0400B44200D287E794E70F9B102BAFD1129BDD
:104C14009B063ED5202CAAD058230C9A1355013458
:104C2400A3E7202CA3D02300013408E0631E012C49
:104C3400BFD00F9A102A38D00F9A022AD0D16226F8
:104C44000C9AD65491E7129BDB06CCD5129B5B05DC
:104C540000D480E783E7129A2300160700D487E77D
:104C640020260C9A0133165582E70C23129A13401E
:104C74005F1EBB41ED1AB44200D24CE759E7129BC8
:104C84009B060ED478230C9A02241370302353709D
:104C940099E7202C00D16AE778230C9A1355013444
:104CA40063E75823EFE76033EDE70C9AA61EB618C6
:104CB400129A920602D55822327091E77822327005
:104CC4008EE7C046F0B55746DE464E464546E0B54B
:104CD40093B08B461CA980C9824609781E9D8946DB
:104CE400002F07D11020219900248143219821917C
:104CF40040051FD421996126890632D41F2102A8B8
:104D04000918002488460A3E0892099302E0070025
:104D1400202C0DD029003800FEF71AFA8B19092926
:104D240001D80B003033424601341355AF42EED262
:104D3400089A099B2199504606912099039505915B
:104D44001F9901940491494602910AA90091594678
:104D5400FFF7C8FE13B0F0BCBB46B246A946A04656
:104D6400F0BD4126CAE7C046F0B54546DE46574683
:104D74004E46E0B597B00A92209A219D924622AA07
:104D840012789346249A9046259A099252462A43C9
:104D940006D11024289AA243289C2892640545D45D
:104DA400289A612792063FD41F2206AE92190A3F21
:104DB40091463A0000245746099E92460B900C9166
:104DC4000D9305E0AE4233D007000D00202C11D026
:104DD4004246330038002900FEF7F8F95346D2B2B0
:104DE400D318092A01D8130030334A460134135525
:104DF400AE42E7D90B980C990D9B289A0194069220
:104E0400279A0592269A0492424603925A4602929F
:104E14000EAA00920A9AFFF765FE17B0F0BCBB46D3
:104E2400B246A946A046F0BD4127BDE70024E4E709
:104E3400B845C9D9DEE7C046F0B54546DE46574613
:104E44004E46E0B593B01C9C1D9D81468A46934610
:104E5400984622002B0020002900FEF742FC00287F
:104E64004BD1012220002900D74B5242FEF734FCDB
:104E7400002842D1012220002900D44B5242FEF7DF
:104E840015FC002839D10022002320002900FEF758
:104E94000DFC002800D0DAE10694079506980799DE
:104EA4008023209ADB001A400F928022209912015D
:104EB40011400A000B9120990600079F194231D135
:104EC400069807990B00034354D1002A00D0D7E178
:104ED40006331E930223209A13400893022313429D
:104EE40000D0CFE11F9B042B00D214E2043B0B93B0
:104EF40004230C9300230E930EE1209B0094019550
:104F040004931F9B03931E9B029343465A465146A8
:104F1400484600F027FA13B0F0BCBB46B246A94697
:104F2400A046F0BD0699079A13000B4324D10B9BAE
:104F3400002BCFD000230E931E9B0E9A0026934283
:104F440000DDFDE10022002320002900FEF7AEFB76
:104F5400002800D081E1209B9D4A02961A408023BC
:104F6400DB00134304931F9B0393069B079C00934E
:104F74000194CAE706231E93964A7800400D8018D0
:104F8400FEF7C0FB944A954BFEF74DFB944A954BB4
:104F9400FEF722FB3B03944A1B0B1A43089009912A
:104FA400924B300011000022FEF70DFB904A914B0A
:104FB400FEF739FB02000B0008980999FEF70CFB79
:104FC400FEF7B8FB07000E90FEF79CFB8A4A8B4B5A
:104FD40008900991FEF727FB0022894BFEF7FCFAA3
:104FE400FEF7A8FB874A060008980999864BFEF746
:104FF4001AFB089009913000FEF784FB834A844B26
:10500400FEF711FB02000B0008980999FEF7DBFA82
:1050140002000B0008900991FEF705FB0C900D911E
:105024000898099902000B00FEF7D6FA00221090A6
:1050340011910C980D99774BFEF7D7FA0022764B15
:10504400FEF7CAFA02000B000C980D99FEF7CDFA90
:105054000022724BFEF7C0FA02000B000C980D9967
:10506400FEF7C3FA089A099B0C900D918021002049
:10507400C905FEF7A8FA02000B000C980D99FEF77B
:10508400ABFA02000B0010981199FEF7AEFA002259
:10509400554BFEF7A1FA624AB3181B050022FEF72E
:1050A400C2FA069A079B08900991FEF715FB00289F
:1050B40009D0089809997B1E0E930022564BFEF7DF
:1050C40094FA08900991089A099B1F000E9B1600F8
:1050D4006333C62B00D9A5E00223209A1A4013009B
:1050E40008920B9A002A00D012E104320C921F9A03
:1050F400042A06D9002B00D125E104230C93023B9A
:1051040008930E9B002B07D00698079932003B00AA
:10511400FEF76BFA06900791002200232000290075
:10512400FEF7C4FA2A4B209A134004930B9B039373
:105134001E9B0293002800D0EFE0069B079C00937F
:105144000194514643465A46484600F00BF9020082
:105154002020209B4746034059424B415B42184064
:1051640051463B004530541CC84705230C9A05930F
:10517400531E04930E9A0023100003930A330293E0
:10518400D30FD217019383185340009322003B009E
:1051940051464846FFF796FD089B002B00D1BAE61E
:1051A4005B46C71A1F9BBB4200D8B4E6040022002A
:1051B400434651462020C8471F9B01370134BB4258
:1051C400F5D82000A7E6C046FFFFEF7FFFFFEFFF03
:1051D400FFF7FFFF01FCFFFFFB799F501344D33F10
:1051E400B3C8608B288AC63F0000F03F0000F83F38
:1051F40061436F63A787D23F71A379094F930A4034
:105204000000E03F1655B5BBB16B0240EF39FAFE22
:10521400422EE63F00002C400000244000001840CD
:10522400FF0300000223209A1A40130008920B9AED
:10523400002A30D105320C921F9A052A00D863E760
:10524400002B77D00223089303330C935CE780236D
:105254001B06EB180694079320E6209B3D4A802109
:10526400069C079D1A408023DB001343220004930D
:105274001F9B090603936B1800920193029644E660
:1052840005265FE600230B9304330C9300230E934F
:105294000233089340E705230C933100394300D1CE
:1052A4004AE6069807992C4A2C4BFEF70DFA00287B
:1052B40008D0069807990022294BFEF7F7F9002831
:1052C40000D039E61E9B002B14D00F9B002B11D06D
:1052D4001E9B1F9A013B1E9300230B930C9B9A4227
:1052E40000D80EE7089A002A20D00223089300234E
:1052F4000B9306E70B931F9A0C9B9A4200D800E786
:10530400089A002A12D000230B9302330893F8E67C
:1053140004230C93C1E70423E8E58021069C079D40
:10532400220009066B18009201930AE71F9AD31A08
:105334000B93E6E61F9B053B0B9305230C93E3E6D7
:105344009B1A5E1EFEE51F9B043B0B9304230C93E8
:10535400D7E6C046FFF7FFFF2D431CEBE2361A3FAA
:1053640080842E41F0B54E46DE4657464546E0B5AC
:1053740095B08046894692469B461E9A1F9B100014
:105384001900209EFEF7ADF9002800D087E11E9891
:105394001F990122C64B5242FEF788F9002800D01B
:1053A400FEE01E981F990122C24B5242FEF794F967
:1053B400002800D0D4E01E981F990022BE4BFEF7AF
:1053C4008BF9002800D0B5E01E981F990022BB4B32
:1053D400FEF76CF9002800D0ACE01E981F9900225B
:1053E4000023FEF763F9002800D0CEE000230B93DE
:1053F400229B5B0500D406260024302306E006AA7F
:10540400013417321355013E202C01D0092EF6D851
:105414001E981F99FEF78EF9A94BF2009B180CCB2E
:10542400050008920993FEF76DF902000B001E981F
:105434001F99FEF7C8F8089A099BFEF7F4F806903E
:105444000791FEF79BF90700FEF758F902000B00DD
:1054540006980799FEF7B7F800229A4B0690079131
:10546400FEF73AF9002800D1C3E001373800FEF70F
:1054740045F902000B0008980999FEF71DF9002868
:1054840001D000270135002E00D191E0069513E0EC
:10549400172306AA9B180A21380001341D19FDF7A9
:1054A40057FE3031297038000A21013EFDF750FEC5
:1054B400092F00D8BAE00700202CE9D1069D20244A
:1054C4000CAB0693172706ABFF180DE028000A2142
:1054D400FDF716FE01343031280039550A21FDF755
:1054E4000FFE051E00D191E0202CEFD10323229A58
:1054F4001340012B17D1219B002B14D00B9B002BA5
:1055040000D1A9E0219B013B2193202B0BD930230F
:1055140007E006AA173201341355219A944200D3A6
:1055240079E0202CF5D1229B01940393219B0293D3
:10553400069B1FE0229B52460493219B49460393FA
:1055440040461E9B1F9C0296009301945B46FFF706
:1055540073FC15B0F0BCBB46B246A946A046F0BDEC
:10556400229B5B070ED40322574B2299019203918D
:1055740021990291009352465B4649464046FFF703
:105584005BFAE6E70422514BEFE71E9A1F9B0020CB
:105594000021FEF718F801231E901F910B9327E7B3
:1055A400229B0393219B029304230193484BE1E73D
:1055B4002800FEF7A7F802000B001E981F99FEF7BB
:1055C40002F8404B002206000F00FEF76FF80CAB08
:1055D4000693002800D075E7002230003900394BCB
:1055E400FEF77AF8002800D06CE7012301359D43CB
:1055F40068E7002206980799324BFEF757F800280F
:1056040000D040E7002F45D101373CE70323229A1D
:105614001340012B65D0202C00D184E70B9B002B79
:1056240027D02D23069A135501347CE7069D202CA0
:1056340000D144E73023361906E006AA01341732B4
:105644001355202C00D13AE7B442F6D12E230CAAEC
:1056540001340692935535E70C23229A13423BD02A
:10566400219B013B21939C4200D250E7202C00D186
:1056740059E7229B5B0704D52B23069A1355013463
:1056840051E7229B1B0700D44DE72023069A1355AC
:10569400013448E7FB0700D4F5E60137F3E6229B23
:1056A4000393219B0293032301930A4B62E7C046B1
:1056B400FFFFEFFFFFFFEF7F65CDCD4165CDCDC18E
:1056C400F0AC00200000E03F3CA9002034A90020F9
:1056D40044A9002040A90020219B9C4200D216E747
:1056E40021E7219B002B96D00B9B002BB4D0219B50
:1056F400013B21939C4200D209E7202C91D112E76F
:1057040010B5002800D110BD00F0DCFCFBE7C0465A
:1057140010B5002803D04A680B681100984710BDE3
:10572400F0B557464E46DE464546E0B597B01C00F8
:10573400209B17000B93C64AC64B824689461A60C3
:10574400002900D1B3E120780025002800D1B5E17B
:10575400C14BB8469B46C14B57460D93CA4607E01A
:105764002A0043465146B84701352078002876D0B0
:1057740001342528F4D104239946023B00269C4693
:105784002078611C0300203BDBB2102B03D85A465F
:105794009B00D3589F460300303B092B38D9002384
:1057A40099462A2800D19DE000230C932E2844D04A
:1057B4000200683AD2B2122A1CD80D9B92009A5861
:1057C400974601230C001E43DAE763460C001E4390
:1057D400D6E74B460C001E43D2E710230C001E43B1
:1057E400CEE708230C001E43CAE7802260785200EB
:1057F400164301310C00672845D82428B0D902008B
:10580400253AD2B2422AABD8954992008A58974693
:1058140000231A0000E0013193009B185B001A1862
:1058240008780C000300303B303A092BF3D90023ED
:10583400914601310C932E28BAD18020303B9C46EE
:10584400C000064360780A0084446346092B00D8EC
:1058540036E12A2800D14DE10C000131A8E7D146F8
:105864002C00BA464746AF4200D87D1E3B002A00B2
:1058740049460020D047200017B0F0BCBB46B246D2
:10588400A946A046F0BD0200693AD2B20F2A00D957
:1058940066E70121734B91409C460B400E9363468F
:1058A400194200D01CE10A2A26D0072A00D057E763
:1058B40021223243059208220B9B04921A000C9B6E
:1058C40051460393102302930E9B3800019308CA98
:1058D400914600932A004346FFF7F4F94B4605002E
:1058E4000B9342E70B9B04CB002A52DB6078914672
:1058F4000C000B93013157E70B9B0C9904CB944696
:105904001093002900D100E163461878624661448F
:10591400002805D151E253780132002B00D15BE11C
:105924009142F8D16346CB1A0F9380223300D20000
:1059340013400B93164204D00F9A0C9B9A4200D941
:105944000F93B60700D481E102230E9363462A0025
:105954005D1B4B46A14611932C000C9D00E03200C8
:105964000B9B002B03D0002D00D148E1013D561CB8
:1059740043465146B847A05D0028F0D1119B4C46E0
:1059840099460E9B002B00D083E1109B35000B93AE
:10599400EBE6283852420643914660780B930C009C
:1059A400013101E760786C2800D119E180225200AE
:1059B400164301311EE780229200607816430131BC
:1059C40018E76078682800D110E18022013116437D
:1059D40010E7672800D19DE0472800D1F6E045286C
:1059E40000D1F6E007210B9A0496D31D4A468B4357
:1059F400190003920C9A380002920CC90092019388
:105A04000B912A0043465146FFF716FA0500ACE60F
:105A1400462800D17BE007210B9A0496D31D4A4601
:105A24008B43190003920C9A380002920CC900921D
:105A340001930B912A0043465146FFF793FC05005E
:105A440093E62A00434651462520B84701358CE6A3
:105A54003155002048C9002050AB002094AB0020F1
:105A6400E0AB0020419000006B1C0E930B9B0433B1
:105A74000C93B60700D4C7E00B9B2A001878514654
:105A84004346B8474B464D44012B00D859E1A14643
:105A940054460E9E32004346013621002020B8476A
:105AA400B542F7D1A2464C460C9B0B935DE6D54B11
:105AB40020789A460025002800D049E60024D2E642
:105AC40000218B005B185B00013219181078303903
