:020000041000EA
:10000000002008205D0100101B0100101D010010E0
:100010001101001011010010110100101101001058
:100020001901001019010010190100101F01001022
:10003000110100101901001021010010230100100E
:100040001101001011010010110100101101001028
:100050001101001011010010110100101101001018
:100060001101001011010010110100101101001008
:1000700011010010110100101101001011010010F8
:1000800011010010110100101101001011010010E8
:1000900011010010110100101101001011010010D8
:1000A00011010010110100101101001011010010C8
:1000B00011010010110100101101001011010010B8
:1000C00011010010110100101101001011010010A8
:1000D0001101001011010010110100101101001098
:1000E0001101001011010010110100101101001088
:1000F0001101001011010010110100101101001078
:100100001101001011010010110100101101001067
:10011000EFF30580103800BE00BE00BE00BE00BE7A
:1001200000BE00BEF2EB8871F80100101C02001046
:10013000A001001090A31AE7D3DEFFFF42012110B7
:10014000FF0100005CB60000793512AB4FF00000F3
:100150002149086006C881F3088810474FF05040D5
:10016000006810B14FF00000F2E70DA40ECC00299A
:1001700002D000F012F8F9E71849194A002000E00F
:1001800001C19142FCD1174988471749884717494F
:10019000884700BEFDE701C901C29A42FBD3704700
:1001A0001C0200101001002098970020A498001055
:1001B0009897002088B6002094B70010000008200F
:1001C0000000082094B7001000100820001008203C
:1001D000000000007047000008ED00E088B6002035
:1001E000985F022075540020D10900206D54002032
:0801F0001C8700100100000053
:1001F800BCAD0020C8AD0020D4AD0020E0AD00208B
:10020800ECAD0020F8AD002004AE0020C0AE002008
:04021800B4AE002060
:10021C00F8B500BF064B0749C91A891048BF013110
:10022C00491003D0044B0BB101481847704700BF6D
:10023C0088B6002088B600200000000008B5054BE9
:10024C001BB105490548AFF30080BDE80840FFF736
:10025C00E1BF00BF000000003CCB002098970020BD
:10026C0030B5DFEDA07A2DED028B83B0C1ED057AB0
:10027C00C1ED067A84780B46002C47D001464068C5
:10028C0007EE100AB4EE677AF1EE10FA3ED006EEE5
:10029C00902AF4EE676AF1EE10FA37D0DFED927A1D
:1002AC0027EE277AC7EE267A17EE905A2846019346
:1002BC00009103F091FD08EE100A284603F08FFD23
:1002CC0000999FED8A7A8B68C96807EE903A06EE22
:1002DC00901A77EEA77A86EE877A88EE275A08EE80
:1002EC00900A17EE101A82488DED005A03F0D2FBDB
:1002FC00013C04EE900A9DED005A019B042C00F287
:10030C00E680DFE804F0365794C71900F7EE006A70
:10031C00F0EE675AB0EE677AB0EE676AC3ED006A2A
:10032C00C3ED017AC3ED025A83ED037A83ED046ABF
:10033C0003B0BDEC028B30BDF7EE004AF6EE006A5E
:10034C0078EEA47A35EE244A67EEA66AC4EE845A97
:10035C00B8EE007A34EEC56A28EE877A66EEA56AA6
:10036C0067EEE57A27EE257A26EE256AF0EE665AD8
:10037C00D4E7B7EE007A85EE246AF0EE476A36EEE3
:10038C00074AF0EE475AF8EE007AE5EE246AE5EEFD
:10039C00645A68EEA77A87EE045A37EE466A67EE1F
:1003AC00857A66EE856A65EE855A26EE056AB0EEAC
:1003BC00677AB3E7F7EE003A74EEA36A34EEE37AA9
:1003CC00F0EE665AB0EE666AE8EEC75AA8EE876A97
:1003DC00F0EE477AB1EEE44AE8EEE67A34EE044AFF
:1003EC00A8EEA67AB0EE463AF0EE656A34EEA42A90
:1003FC00E4EE056AE4EE455AF8EE002AA4EE053A5E
:10040C00A4EE456A67EE827A27EE227A66EEA46A3B
:10041C0065EEA45A83EE835A66EE856A67EE857A9A
:10042C0065EE255A27EE057A26EE056A76E7F7EE95
:10043C00003A74EEA36A34EEE37AF0EE665AB0EE4C
:10044C00666AE8EE875AA8EEC76AF0EE477AB1EE14
:10045C00E44AE8EEA67A34EE044AA8EEE67AF0EE28
:10046C00462AF0EE656AB8EE003AE4EE056AE4EE70
:10047C00455A24EE833AE4EE052AA4EE456A67EE6B
:10048C00837A37EE077A66EEA46A65EEA45A83EE99
:10049C00A25AC1E7F7EE004AF6EE006A74EEE87A6B
:1004AC0035EE244A67EEA66AC4EE845AB8EE007A9A
:1004BC0034EEC56A28EE877A66EEA56A67EEA57AF1
:1004CC0027EE257A26EE256AF0EE665A26E79FED92
:1004DC00056AF7EE006AB0EE467AF0EE465AF0EE98
:1004EC00467A1BE700000000DB0FC94000002042E9
:1004FC00000020412DE9F04F4FF0000A284D002755
:10050C00AB465646DFF8A890DFF89C8089B0594678
:10051C0000220AEB4A0402EB8403013205EB0313BD
:10052C000C2A8E7001F11001C3F80490C3F80880F6
:10053C00DF60F0D10AF1010ABAF1050F0BF1C00B23
:10054C00E5D10421EC466F46164A174B174C009622
:10055C00039604968DF802A007968DF8121001925E
:10056C0005920293069304AEBCE80F00C5F8800117
:10057C006160A260E3600FCFC5F84002C4F8C410FC
:10058C00C4F8C820C4F8CC300FCEC5F80003C4F8AA
:10059C008411C4F88821C4F88C3109B0BDE8F08FFF
:1005AC00DCD600200000A042F4FD343F5CD80020D3
:1005BC0000007A441E4B05EE900AD3ED027A93EDBF
:1005CC00035ADFED1C4A9FED1C6AD3ED046A84EEDE
:1005DC00A57A65EEA77A25EE855AE7EE066A87EED0
:1005EC00867AC5EE067A66EEA56AFDEEE77A17EE18
:1005FC00902AC6EE867ABDEEC77AFDEEE77A17EE44
:10060C00101A17EE903AB1F5005FA8BF4FF40051E5
:10061C00B2F5005FA8BF4FF40052B3F5005FA8BF5E
:10062C004FF400530548C0E900128360704700BFC7
:10063C00DCBE00200000004400007A44E8B6002034
:10064C002DE9F04F4FF0000883B00746FFF7B2FFDB
:10065C00124BDFF84CA0DFF84C900193019B13F880
:10066C00016B019376B1CB4655460024594628467A
:10067C003A460134FFF7F4FDB44205F110050BF1D5
:10068C001C0BF3D108F10C08B8F13C0F0AF1C00AAD
:10069C0009F5A879E2D103B0BDE8F08FC8AE00200F
:1006AC00DCD600204CD000202DE9F047344D4FF41F
:1006BC007E720021284608F081FE022331484FF457
:1006CC0070723149286005F10C00AB8008F0E4FE33
:1006DC004FF0FF3C2D4B2E4A1B68DFF8C880127878
:1006EC0005F5757785F8D023C5F8CC33B8E80F003D
:1006FC000FC7D8F80030DFF8B0903B60254B05F5FC
:10070C007A7A93E8070099F800308AE8070085F8B0
:10071C00F43399F80130204C85F8F53399F8023010
:10072C0005F10B0E05F2F73685F8F63308221EF8A4
:10073C00013F8CEA030C4CF300032340013A83EA9B
:10074C005C0CF8D1B645F1D16FEA0C03AB60EFF35A
:10075C00108472B64FF48051104809F047FA4FF4E8
:10076C00806207490D4809F097FA84F310880C4A07
:10077C00044B1068C01A18BF0120BDE8F08700BFF9
:10078C00ECCB002031505344DCD6002094C5002023
:10079C0045D00020F0BE00202083B8ED00F03F00D3
:1007AC0000F03F10DCBE0020FCBE00207A4B7B4AE0
:1007BC001968914240F0A6809B88022B00F2A2801F
:1007CC004FF0FF3210B576487649DFF814C2082492
:1007DC0003785A4042F300030B40013C83EA520277
:1007EC00F8D101306045F2D1D2436B4B99689142FC
:1007FC0040F08A804FF4707269496B4808F04CFEE7
:10080C00654B6A4A93EDF37AB5EE407AF1EE10FA45
:10081C0082ED007A7AD14FF08053654ADFF878E1A7
:10082C0013609EF8D033634A003B18BF0123624C1F
:10083C00DFF8B0C11370BCE80F000FC4DCF8003057
:10084C002360BEF80430012B5AD90023DFED5B5A2C
:10085C009FED5B6A5B4C5C485C490EEB830292ED4E
:10086C00FA7AB5EE407AF1EE10FA04EB830282EDDF
:10087C00007A00F08780B4EEE57AF1EE10FA00F120
:10088C008480F3EE046AB4EEE67AF1EE10FA9FED92
:10089C00505A36FE877A27EE057AF7EE007A27EE65
:1008AC00075A77EE277AF6EE003A67EE056A9FED67
:1008BC00494AE5EE237ADFED484A27EE267AE6EE42
:1008CC00847AE7EE247AF5EEC07AF1EE10FA4CBF9A
:1008DC0001220022002A47FE867AB0EE677ABEEE2D
:1008EC00E87A17EE102A40F823200EEB030292F858
:1008FC00F423003A18BF0122CA540133032BACD1A4
:10090C00002010BD02207047032010BDDFED2B7AB4
:10091C00B4EEE77AF1EE10FA3BD4F3EE046AB4EEDF
:10092C00E67AF1EE10FA9FED2A6A36FE877A27EE08
:10093C00067AF7EE007A27EE076A77EE277AF6EE5C
:10094C00004A67EE066A9FED235AE6EE247ADFED45
:10095C00225A27EE267AE6EE857AE7EE257AF5EE30
:10096C00C07AF1EE10FA4CBF012400249FED147AEA
:10097C00002C47FE877AB0EE677ABEEEC27A17EE8D
:10098C00103A4AE74FF40042ADE70022DFED137A4C
:10099C00A0E7DFED127AE9E700F03F103150534445
:1009AC000CF03F102083B8EDDCD6002094C500205D
:1009BC00F0AE002045D00020DCBE0020000070C24C
:1009CC0000000000F0BE0020E4AE0020FCBE0020C1
:1009DC00E3C8EB3DADAA2A3EB4AA2A3D788B674208
:1009EC00F8F33F10D4F33F10F8B5FFF783FD4FF049
:1009FC008057002300210B480B4E4FF4004E316002
:100A0C0007601846094ADFF830C0094D094C1370CD
:100A1C000CEB8302116045F823E0E0540133032B07
:100A2C00F6D1F8BDF0AE002094C5002045D00020D2
:100A3C00E4AE0020FCBE0020F0BE002000B5192062
:100A4C0085B001F0A7F819234FF0010242EC4430B5
:100A5C001A4803AB02AA01A901F0DEFF40BB1848FB
:100A6C0003AB02AA01A901F0D7FF08BB172001F0C4
:100A7C0091F817234FF0010242EC443042EC403025
:100A8C001121104804F020FF4FF488520E4B1A60CD
:100A9C0000F0B0FFFFF78AFE08B105B000BD0B48AF
:100AAC00FFF7CEFD094805B05DF804EBFFF782BDFA
:100ABC000198DDE9021201F079FFD7E700B0710B64
:100ACC0080D1F00804AF00200080064000803B4736
:100ADC002DE9F04F2DED028B192085B001F05AF85D
:100AEC0019244FF0010545EC444045EC4040FFF71C
:100AFC00A5FF45EC40404FF4FA7001F091FE012146
:100B0C004FF4FA5002F018F800259FED478B484F30
:100B1C00DFF84481DFF84491DFF844A1454E464CA0
:100B2C0000214FF0FF3005F0D1FD01F0FBFF00F08C
:100B3C0017FC3B7873B93378002B4FD12368013302
:100B4C00B3F57A7F2360EBD34FF00073256020EE72
:100B5C001030E5E7EE46EC46D8F80000D8F8041063
:100B6C00D8F80820D8F80C303D70AEE80F009DF88E
:100B7C00003003EB43029DF8013003EB820309EBD9
:100B8C00031E4FEA031BBCE80F0049F80B00CEF81C
:100B9C000410CEF80820CEF80C30EFF3108B72B6A0
:100BAC00DAF800204FF4A87307EE902AF8EE677A73
:100BBC009DF8001017EE902A03FB01F19DF801300F
:100BCC006846C3EBC30301EB83011C4B1944FFF7CD
:100BDC0047FB8BF310883378002BAFD04BF6803368
:100BEC00174AD2F800B035709B4516D0154B9B4573
:100BFC0013D04AF644439B450FD09B461248134BE7
:100C0C001D70134BC3F800B0124B83ED008BFFF734
:100C1C0017FD584600F026F890E707EE90BAF8EE6C
:100C2C00E77A17EE900AEAE70000000000000000E7
:100C3C0046D0002048D0002034CB00204CD00020DF
:100C4C00F4AE00200077010000442C4749D000206E
:100C5C00DCAE002088B800209C5A0220DCD6002094
:100C6C00F8AE002010B5044682B0052001F098FEC5
:100C7C00230207EE103A06EE900AB8EE477AF8EE29
:100C8C00666A9FED136AC6EE877A77EE867ABCEEBB
:100C9C00E77A17EE103A9AB2BAB107EE102AB8EE0C
:100CAC00477ADFED0C6A77EEC77A67EEA67AFCEE30
:100CBC00E77ACDED017A9DF804301B02064943EA30
:100CCC000243C1F8C83002B010BD1346F6E700BFAE
:100CDC000000003B00008043000030508B884988A6
:100CEC001B0A042B4FEA11201ED0022B01D000202E
:100CFC007047012827D00228F9D1C9B291B945F61D
:100D0C00FF2C1288144802F5B6431BB26345A8BFEA
:100D1C00634623EAE373C3F30723104930F9133016
:100D2C008A80CB80012070470128E0D10B491368E1
:100D3C000A689A42F6D0DFF82CC0094A0B608CF88E
:100D4C0000001360EEE71378044A003B18BF012340
:100D5C0001201372704700BFD8A80020F8AE002005
:100D6C00F4AE002048D0002010B58A884B88120AB7
:100D7C00042A82B04FEA132319D0022A02D0002091
:100D8C0002B010BD012B19D0022BF8D14A78012AE0
:100D9C0030D0022AF3D1184C184B224623604FF066
:100DAC0080736360CB88082B28BF082307E0012BD6
:100DBC000AD0022BE3D10123114A00E0114A02B000
:100DCC00BDE8104006F0C2B94B78012B07D0022BBE
:100DDC00D5D1CB880C4A1A2B28BF1A23EFE7DFF8A2
:100DEC0030C01346DCF800C001AACDF804C006F0F0
:100DFC00ADF9C5E7054AE2E734D00020010000A5B3
:100E0C00B8A8002000AF0020BCA80020FCAE002039
:100E1C00F8AE002000207047002070474B88024A33
:100E2C00DBB2012013607047E4CF00200120704733
:100E3C004B1EB3F5C07F01D3012070472DE9F04F55
:100E4C002DED0E8B0A4685B00020C54906F000FB3F
:100E5C0028B9012005B0BDEC0E8BBDE8F08FC1495F
:100E6C00C14A0B68C14C01330B60A16A1368039132
:100E7C0043B16FF4FA642144CB1A4BF67E318B42AA
:100E8C0040F20E82039BC0F38F041360B84B0094A6
:100E9C001B683BB10021184609F0FCF9074608B164
:100EAC00846004E00027B34A13680133136001F037
:100EBC00ADFCB14E044633780D46DFF8ECA223B1FD
:100ECC00DAE900231A4340F0F081DFF8E082CAE946
:100EDC000045337823B90123A84AC2E90045337091
:100EEC00009ED8E90001321841F10003C8E9002343
:100EFC00A34CA44DE388D5ED007AF5EE407AF1EEE3
:100F0C0010FA1CB240F0F581F7EE006A9E4B1A788D
:100F1C00009BD2B2002B00F00C8207EE904ADFED62
:100F2C00A89AB8EEE78A9FED999A02260025B0EEB2
:100F3C0069AA28EE098AF0EE69AAB0EE69BAF0EE59
:100F4C00698AB0EE66EADFF86892DFF86882DFF84B
:100F5C0068A28F4CDFF864B201927AE06CEE0D7AE5
:100F6C0098F80120F0EEE74A002A40F0ED802CEED4
:100F7C00AD6A98F80220B0EEC65A002A40F0ED8017
:100F8C0007EE100A67EE285A28EE066AF4EECA4AF3
:100F9C00DAF8002028EE277A02F5005004EB8000E6
:100FAC0080ED006AF1EE10FAB4EEE95ADBF80410A9
:100FBC0068EE255AA2EB0101C1F30C0101F50051B9
:100FCC0004EB8101D1ED007A04EB820181ED007A12
:100FDC0034FE8AAAF1EE10FADBF8001075FE299A9D
:100FEC00511AC1F30C0104EB810191ED007A02F569
:100FFC008041013204EB8101C2F30C02C1ED005AB5
:10100C00CAF80020F7B1F7EE005ABFEE006A87FE6F
:10101C00657ADFED6C6AC7FEE57A87FE067AC7FE55
:10102C00867A27EE267A67EEA67ABDEEC77AFDEEB3
:10103C00E77A17EE103A3A68526822F8253017EE24
:10104C00903A9353009B01359D4206F1040600F043
:10105C00E680434B33F925209B5F07EE102A07EE01
:10106C00903AB8EEC77AF8EEE77A27EE097A67EE8F
:10107C00897A019B27EE0E7A67EE8EBA002B40F030
:10108C00A380002F00F0B88017EE101A019A414887
:10109C0008F002FC1BEE901A029001223E4808F068
:1010AC00FBFB9DED027A0BEE900AF0EEC75AB0EE08
:1010BC00EB6AF4EECB5AF1EE10FAB4EEEA6A35FEB6
:1010CC008BBAF1EE10FA76FE2AAA17EE101A02224B
:1010DC00324808F0E1FB03220DEE100A1BEE901AC9
:1010EC002F4808F0D9FB0DEE900AF3EE04BAD9EDB7
:1010FC00007AC7EEAB7A2B4817EE901A02F0CAFCB6
:10110C00D9ED017AC7EEAB7A0CEE100A17EE901AF5
:10111C00244802F0BFFCD9ED027AC7EEAB7A0CEE94
:10112C00900A17EE901A1F4802F0B4FC98F80020B1
:10113C00002A3FF413AF98F80120F0EE684ADFED77
:10114C00207A002A3FF413AF98F80220B0EE685AC8
:10115C009FED1B6A002A3FF413AFF0EE685A13E7B9
:10116C0058BC0020ECCF0020A8C9002000000B4088
:10117C0094CB0020E4CB002049D0002080B8002084
:10118C00F8AE002094C5002045D0002000000038A7
:10119C009CDA00204CD000209CD10020ECD2002006
:1011AC003CD400200000204178B8002088B80020F2
:1011BC00F0BE0020FCBE002074BF0020E8B600206A
:1011CC000000000000FEFF46F0EEC75AB0EEEB6ADE
:1011DC00F4EECB5AF1EE10FAB4EEEA6A35FE8BBAA5
:1011EC00F1EE10FA76FE2AAA002F7FF46EAFF0EE25
:1011FC0068DA1FED0DDA78E7F4EECB8AF1EE10FA2F
:10120C00F4EEEA8A5FED127A38FE8BBAF1EE10FA40
:10121C00F0EE67DAB0EE67DA78FEAAAA65E7B7EE09
:10122C00007A5FED187A8BFE47BACAFEC7AA8AFE0F
:10123C0047AAC9FEC79A2BEE27BA6AEEA7AA2AEECE
:10124C0027AA69EEA79AFCEECB7ACDED007AFCEEDC
:10125C00EA7A17EE901AFCEECA7A17EE902AFCEE98
:10126C00E97A17EE903A0020344C009D258061807D
:10127C00A280E380208127B1314B3946186808F0F1
:10128C00FFFF01202F4B03999B6A2F4A5B1AA2FB8D
:10129C000323DB08A37205B0BDEC0E8BBDE8F08F09
:1012AC002A490B6801330B60ECE54CF25131DAE959
:1012BC000089B4EB080265EB09038A4273F1000361
:1012CC00FFF403AE00230022337000234FF0020919
:1012DC00DFF88080C8E90023194B0021186808F05A
:1012EC00D9FFA0B9B9F1010F3FF4F1AD4FF00109ED
:1012FC00F2E795ED007AF3EE047AC7EE277A1448FC
:10130C0017EE901A02F0C6FB06EE900AFEE50022DC
:10131C0003685B6803F5407C1A605A6008336345C8
:10132C00FAD1C0238360064B0146186808F0A8FF69
:10133C00D8E700990B460A4695E700BF98C50020F0
:10134C0094CB002000000B40CDCCCCCCE8CB0020C3
:10135C000000204188B8002000231370704700BFA4
:10136C00F8B5002006F06CF83E4B18601B68E3B132
:10137C003D4C002321684FF47A728803890C07F0E6
:10138C002DFB3A4B07461B784BB12168384BD3E900
:10139C00002391424FF0000171EB030306D3394651
:1013AC00BDE8F840002006F025BCF8BD01F02EFA8F
:1013BC00304BD3E900232468801A61EB0303A0FBB4
:1013CC00040104FB03112A4B2B4AD3E900560023DA
:1013DC0007F004FB03460C464FF0CC31EB1A66EBDE
:1013EC000404240144EA13741B011A0F42EA041288
:1013FC0022F0704C23F0704262444FEAE47CDFF838
:10140C0080E00CF0030502EB14622A442CF0030577
:10141C00AEFB026C2CF0030606EB9C06921B2A44D6
:10142C009B1A03FB01F164EBE2740EFB0411A3FBAA
:10143C000EE20A44D30F13EB0E0342F100025B08D9
:10144C0043EAC2730D4A00209342B8BF1346B3F56A
:10145C00005FD4BFF91AA7F50051BDE8F84006F0BB
:10146C00C9BB00BFE8CF0020F8AE002049D0002057
:10147C0088B8002080B8002040420F0000E0FFFF39
:10148C00CDCCCCCC30B592F800E005460EF0600423
:10149C00402C0B46944683B029D01EF0800F614639
:1014AC002C4606D1012B60D0022B28D0012003B092
:1014BC0030BD012BFAD19CF80130433B142B51D891
:1014CC00DFE813F0D3005000CA005000C1005000F8
:1014DC00BA00500050005000500050005000EF0077
:1014EC00B000A200810050007400500067005478D6
:1014FC00012CD2D103B0BDE8304000F00BBBB84B8F
:10150C001B78423B142BD1D801A252F823F000BF18
:10151C001D170020AD130020A9160020AD130020CC
:10152C008F160020AD13002045160020AD130020AF
:10153C00AD130020AD130020AD130020AD1300201F
:10154C00AD130020AD130020AD130020AD1300200F
:10155C00AD130020AD130020F9150020AD130020B1
:10156C00D3150020002003B030BD9CF801009C4B2B
:10157C009C4A187028469CF802309CF803C043EA39
:10158C000C231380CB88984A03B0BDE8304005F09B
:10159C00DDBDBCF80230DBB2022BE3D893489BB222
:1015AC00C35C934A284613700123EDE7BCF8023064
:1015BC00DBB2022BD6D88F4A52F823308C4A204605
:1015CC0013600423E0E7CDF804C0FFF70DFA8A4B53
:1015DC00186807EE900AF8EE677A17EE900AFFF794
:1015EC002FF8854B186807EE900AF8EE677A17EE1D
:1015FC00900AFEF7DFFF4FF0000C7D4A01232846CE
:10160C00019982F800C0BFE7CDF804C0FFF7CEF80F
:10161C0001990546002800F08881754A012320466F
:10162C001570B1E7CDF804C0FFF73EF8704A0123FE
:10163C00107001992846A7E7BCF80230DBB2042BE6
:10164C0090D86E4AB8E76E4B694A93F800C02846AA
:10165C00012382F800C097E76A4B654AD3F800C0B3
:10166C0004232046C2F800C08EE7BCF80230B3F564
:10167C00A06F4FEA1322BFF475AFDFF89CC1C3F320
:10168C0003101CF802C084457FF66CAF03F00F0307
:10169C00032B00F24781DFE813F0F300EA00E100CE
:1016AC00D600BCF80230092B00F055810D2B00F24E
:1016BC003981DFE813F02E01250118011401100106
:1016CC000C010801040100013701FC00F800F400D2
:1016DC00F000444B1B78022B3FF6E8AEBCF806201A
:1016EC00002A3FF4E3AE404A404912789BB2003ADC
:1016FC0018BF0122CA54D9E63A4B1B78022B3FF68D
:10170C00D5AEBCF80620032A7FF6D0AE364AB3EE2F
:10171C00047AD2ED007A87EE877A364A17EE101AE1
:10172C0002EB83023848C2ED007A9CB202F0B2F9A7
:10173C0007EE900AFEEEE87A17EE902A334B43F848
:10174C002420B3E6274B1B78042B3FF6AFAEBCF836
:10175C000620032A7FF6AAAE234ADFED2D7A92EDFE
:10176C00007A2549F4EEC77A0868F1EE10FA06EE15
:10177C00900AF8EE666A214A77FE877A02EB8303B9
:10178C0016EE900AC3ED007AFEF714FF8EE6BCF855
:10179C000630002B3FF48AAE134B194A1B78003BE2
:1017AC0018BF0123137081E6BCF80630032B7FF6BB
:1017BC007DAE0D4BB3EE047AD3ED007A87EE877ACB
:1017CC00104B17EE101A1048C3ED007A02F062F9B4
:1017DC0007EE900AFEEEC27A0E4BC3ED007A65E678
:1017EC004AD000203ED00020F4CF0020FCBE0020C8
:1017FC0098CB0020F0BE0020F8AE0020DCBE00200C
:10180C0045D0002094C5002000002041E4AE00200B
:10181C0000000000F0AE0020C8AE0020BCF806307E
:10182C000F2B7FF643AE5F4CDFF8BCC10FCC01240D
:10183C00CCF800005C48CCF80410CCF80820CCF8AC
:10184C000C30047032E602EB4202DFF8A0C100EB70
:10185C0082031B015CF803C0544A01E702EB42030C
:10186C0000EB8303524A1B0152F803C0F4E702EB6E
:10187C00420300EB83034F4A1B0152F803C0EBE712
:10188C00DFF86CC102EB420200EB82030CEB03139A
:10189C0093F802C0E0E7484BD3F800C0DCE7474BB5
:1018AC00D3F800C0D8E7464BD3F800C0D4E7454B7B
:1018BC00D3F800C0D0E7444BD3F800C0CCE7434B7F
:1018CC00D3F800C0C8E7424BD3F800C0C4E7414B83
:1018DC00D3F800C0C0E7404BD3F800C0BCE73F4B87
:1018EC00D3F800C0B8E73E4A1389907A92F80BC03F
:1018FC009BB24FEA0C6C4CEA004C4CEA030CABE785
:10190C00374BB3F804C0DB881FFA8CFC4CEA034C51
:10191C00A2E7334BB3F800C05B881FFA8CFC4CEA8F
:10192C00034C99E74FF0000C96E72E4B186807EE26
:10193C00900AF8EE677A17EE900AFEF781FE294BB3
:10194C00186807EE900AF8EE677A17EE900AFEF721
:10195C0031FE019961E6224B144AB3F800C01C8891
:10196C0082F800C0240A54705C88284694705C8805
:10197C00240AD4709C8814719C88240A5471DC88C5
:10198C009471DC88240AD4711C8914721C8993F814
:10199C000AC0240A5472DC7A82F80AC00C23D4726E
:1019AC00F2E500BFF4CF002046D0002098CB0020F9
:1019BC00E4D60020E0D60020F0CF0020E8CF0020B5
:1019CC00E4CF0020ECCF0020E8CB0020E4CB0020BB
:1019DC005CCB002058CB002064CB002060CB0020D7
:1019EC0098C50020F8AE00209C5A0220E8D60020B2
:1019FC00DCD6002010B5C02282B00821184804F0B3
:101A0C0085FB184C18492060184804F01BF800237B
:101A1C0004221946206804F0EBF800210B2000F09A
:101A2C0019FB012004F03AF9012301A900201C46FE
:101A3C00ADF8043004F0D2FDFEF75CFD0C48FEF767
:101A4C00FFFD4FF0000C47F6FF700A4B0A49A3F854
:101A5C0004C0D8800C70094A1B68136002B010BD1A
:101A6C00D0AE002094CB0020D8AE0020DCAE0020FD
:101A7C0000803B47F8AE002048D00020F4AE002098
:101A8C000048704700AB0020024A0348136801333A
:101A9C0013607047F0CF00205CAA002010B582B014
:101AAC0050B940F209434FF4417C184C63801748FD
:101ABC00A4F800C002B010BD032824D8144B134C5A
:101ACC0053F820301846019307F05CFDC0B21F2874
:101ADC00864628BF4FF01F0E0EF1010C5FFA8CFCEE
:101AEC004FEA4C0C019B4CF4407C0028DFD0581E74
:101AFC0022460023013310F8011FDBB29E4522F869
:101B0C00021FF7D8D3E70020D4E700BF58BA002053
:101B1C0048AA0020012904D15378012B03D00020BE
:101B2C007047012070479388042B09D0052BF6D100
:101B3C00D38811468E2B28BF8E23054A05F006BB91
:101B4C00D3881146282B28BF2823024A05F0FEBA59
:101B5C0090A9002020AA00204FF4807C0C4B00B5EB
:101B6C0053F8202003EB8003C00082F0400200F108
:101B7C00804003F5805E02F0C00200F5203003F5D2
:101B8C004053CEF800204160C3F800C000BD00BF38
:101B9C00048003404FF0000300B543EC440043ECD9
:101BAC0040004FF0050E4FF4807C0C4BC20053F8F4
:101BBC00201003EB800081F0400102F1804303F51B
:101BCC00203301F0C00200F5805100F540500A604E
:101BDC00C3F804E0C0F800C000BD00BF048003409F
:101BEC000FB400B5084883B003F0D2FD049B3BB1A1
:101BFC0005A91846019103F089FC044803F0C8FDBF
:101C0C00012003F09BFC00BF14AB002024AB002090
:101C1C0008B50148FFF7E4FF28AB0020EFF3108074
:101C2C0072B6064BD3E8CF1F01220029FAD1C3E8C4
:101C3C00412F0029F6D1BFF35F8F7047B75A0220AE
:101C4C000023034AC2E88F3F80F31088704700BF1F
:101C5C00B75A022070B51646EFF3108472B6DFF84F
:101C6C0048E0DEE8CF2F0123002AFAD1CEE8423F2C
:101C7C00002AF6D1BFF35F8F012301F0070CCA08CD
:101C8C0003FA0CF310F802C01CEA030508D14CEA65
:101C9C00030C00F802C0CEE88F5F84F3108870BD8F
:101CAC003046FFF79DFF00BFB75A0220F8B50F462C
:101CBC001946EFF3108672B61C4DD5E8CF4F0123B1
:101CCC00002CFAD1C5E8443F002CF6D1BFF35F8F4E
:101CDC008A421BD8012402E00132914222D3D3085C
:101CEC0010F803E002F0070C04FA0CFC1EEA0C0FCF
:101CFC00F2D14EEA0C0E00F803E010460023C5E8C2
:101D0C008F3F86F31088984207DBF8BD0023C5E8A7
:101D1C008F3F86F310884FF0FF30002FF5D00698D8
:101D2C00FFF75EFF4FF0FF30E8E700BFB75A022025
:101D3C00044A1078431CDBB2182B28BF10231370F5
:101D4C00704700BF3CAF002000B5DFF81CC083B06B
:101D5C0001461F231822CDF800C00248FFF7A6FF4A
:101D6C0003B000BD00BF002038AB00204FF0E022D4
:101D7C00936843F000539360704700BF0021044BFD
:101D8C0003F12002C3E88F1F01339342FAD170474D
:101D9C00AC5A0220024B00221844C0E88F2F704727
:101DAC00AC5A02204FF08030044B05491A460433DC
:101DBC008B421060FAD162B6704700BF00E400E0BD
:101DCC0034E400E0012300F01F029340400941B1CC
:101DDC00800000F1604000F56140C0F88031036084
:101DEC007047024A203042F82030704700E100E092
:101DFC0010B582B0EFF3108472B6164BD3E8CFCF88
:101E0C000122BCF1000FF9D1C3E84C2FBCF1000F3B
:101E1C00F4D1BFF35F8F104A10309268DFF83CC0EA
:101E2C0052F82020624508D0914206D0CDE900013D
:101E3C0000F00AFF0199074B0098074A926842F894
:101E4C002010BFF35F8F0022C3E88F2F84F310881C
:101E5C0002B010BDB55A022000ED00E011010010D7
:101E6C002DE9F04F06468A46154683B0EFF31088ED
:101E7C0072B6714FD7E8CF2F0123002AFAD1C7E8E9
:101E8C00423F002AF6D1BFF35F8F6C4991F90020D5
:101E9C00002A7BDB6A4802EB420400EB840393F8D4
:101EAC0006C0103681F800C06649A40089684FEA64
:101EBC00420B51F826E0AEEB00012F292ED96249D6
:101ECC008E4540F0848043F0010E604B0234044494
:101EDC00043B1B1BC3F34A036FEAC3434FF421417A
:101EEC006FEAD3435A4420F8221000EB820253804D
:101EFC004BF601539380FF23D571C2F808A0937160
:101F0C00504B9B6843F826E0BFF35F8F0023C7E874
:101F1C008F3F88F3108803B0BDE8F08F2EF0010CD2
:101F2C009CF80710A9425AD9B14601941E4603E009
:101F3C00CB79AB4230D98C469CF9064004EB44017A
:101F4C00002C00EB8101F3DA00944BF6015433467C
:101F5C004E460CF10409043BA3EB0903C3F34A03FB
:101F6C006FEAC3436FEAD343ACF80430384B0BEB46
:101F7C0002018CF8062040F82130009B00EB810216
:101F8C0094809371D571C2F808A0B9E700F05CFE9B
:101F9C002A4991F900207DE76FF007010094019C1C
:101FAC0033460C1B6146241A019431F8044F4E46FB
:101FBC0044F30A04023401EB4404894601990C44AD
:101FCC00C4F34A046FEAC4446FEAD444C3E7CDE9CE
:101FDC00002300F039FEDDE90023194873E71B4AA2
:101FEC00A11CDD710144043A251D521A0544ACF1C3
:101FFC000401491BC1F34A016FEAC141C2F34A0211
:10200C006FEAC2426FEAD1414FF4214E6FEAD242DD
:10201C0099800F4920F804E05A804AF6AA256246B6
:10202C00121A524155432D0DC3F808A09D7143F06F
:10203C00010ECCF8001063E7B55A022047D00020FF
:10204C0040AF002000ED00E01101001070AF002047
:10205C00014880474FF0FF0C20F0030303F160436D
:10206C0003F5644300F003001A68C0000CFA00FC8E
:10207C0022EA0C0281400A431A607047F0B504460C
:10208C0083B0EFF30583DBB29C46EFF3108572B699
:10209C00DFF894E0DEE8CF2F0123002AFAD1CEE856
:1020AC00423F002AF6D1BFF35F8F1B4E4AF6AA239C
:1020BC00B2681A4852F82C2044F0010701922246CB
:1020CC00121A524153431B0D019A59B2BA4214D001
:1020DC000246002392F906C00C328C4512D0013313
:1020EC00042BF7D10E4B002218781970A071CEE892
:1020FC008F2F85F3108803B0F0BDB368094A43F8FD
:10210C002C20EFE7FF2203EB430300EB83039A71D0
:10211C004BF601529A80E5E700ED00E040AF00205D
:10212C0047D0002011010010B55A0220014B0B447E
:10213C0003607047AC5A022070B5114C114DAC4283
:10214C001CD2FF260BE0FFF7F3FD01462046FFF7FC
:10215C00EDFFA680BFF35F8F0834AC420ED223682C
:10216C00002BF0D1FFF7E4FD01462046FFF7DEFF20
:10217C002671BFF35F8F0834AC42F0D370BD00BF43
:10218C0030B6002040B6002010B50446FFF7D0FD55
:10219C0001462046FFF7CAFFFF232371BFF35F8F71
:1021AC0010BD00BF10B504460120FFF7CDFD034B59
:1021BC0003442360BFF35F8F10BD00BFAC5A0220F5
:1021CC000D4B1A68EFF3108172B6D2E8CFCF012015
:1021DC00BCF1000FF9D1C2E84C0FBCF1000FF4D1E7
:1021EC00BFF35F8F00221B68C3E88F2F81F3108829
:1021FC0040BF002000217047E0CB00200000000011
:10220C002DE9F04F2DED028B85B0EFF30583DBB29A
:10221C00103B9A0818BF01224FF0010103F0030E86
:10222C0018BFA94CA94B08BFA94C0EEB820253F85E
:10223C00225001FA0EF204F541539FEDA18BF346A7
:10224C0002925A602FE0AB88190440F19480AB796C
:10225C00002B40F0DE80B5F90860002EC0F21C8126
:10226C006B6906EB460603EBC603D3E90267B7F1CD
:10227C00FF3F08BFB6F1FF3F0ED004EB8B01A36A02
:10228C000A69D21AF31A934205D30123226A03FA7C
:10229C000BF3134200D10E61204600F0AFFAB042AE
:1022AC00B941C0F2F980B5F90860029B002EE363D6
:1022BC00C9DBD5F8149006EB460A09EBCA07BB68D4
:1022CC002046D7F80C80019300F098FA019B9842B5
:1022DC0071EB0801B7DBB8F1000FC0F2C080D7E991
:1022EC0004317C4A934200F0F7807A88B5F90800F3
:1022FC0092B242EA0040984702460B4652EA03016A
:10230C0000F0AD80002B80F2CD800199B1EB020E74
:10231C0068EB030839F93A30C7E902E8002B92DB85
:10232C00686903EB430200EBC202D2E90271BE45BD
:10233C0078EB010C4FEA430285DBAC462CF8083FE6
:10234C0006E003EB430100EBC1015A00D1E9027135
:10235C00BE4578EB01011A4405DB30F9323000EB55
:10236C00C20C002BEDDA29F83A30ACF80060AB88DF
:10237C0019043FF56CAF2B69EFF3108272B6D3E8FA
:10238C00CF0F01210028FAD1C3E8401F0028F6D155
:10239C00BFF35F8F4FF6FF76A8880023296900B240
:1023AC00AE80C1E88F3F82F310889842FFF64FAFA2
:1023BC000746A1466E6905F10808B5F9083007EB28
:1023CC00470E002BC44606EBCE0215DBD2E90240C9
:1023DC00AA46019704E036F935309446002B09DB08
:1023EC0003EB430506EBC502D2E90271BC4270EB6C
:1023FC000101F0DA5546019FACF8007036F93E70D9
:10240C0026F83E30002FD8DAAB794C46002B3FF43F
:10241C0022AF0023AB71B5F90860721C33463BD078
:10242C00686905F1080E03E08E465A1C3FF415AF9F
:10243C0003EB430200EBC2014F889C463F0430F98A
:10244C003230F1D5664581ED028BEED0AEF800301E
:10245C002989664620F83210A5F808C0E5E739F856
:10246C003A302B812B69EFF3108272B6D3E8CF0F81
:10247C0001210028FAD1C3E8401F0028F6D1BFF390
:10248C005F8F6B88296929F83A3000236E80C1E888
:10249C008F3F82F31088D6E640BF05B0BDEC028BAF
:1024AC00BDE8F08F20460393019200F0A7F9019A42
:1024BC00039B10EB020E43EB01082BE7AFF30080FC
:1024CC00FFFFFFFFFFFFFFFF00800B4074CB0020DE
:1024DC0000000B400121002008460B69039198472E
:1024EC000028BCD00399D1E9002307E710B5204C94
:1024FC0082B0236933B10A211E4802B0BDE81040F6
:10250C00FFF714BE03211C48019300F065F91A482B
:10251C00E060FFF70DFC4FF0030C184984F800C085
:10252C0001444FF050404FF6FF724FF00F0C2161F9
:10253C001349019BA16000686169A280A4F802C0E4
:10254C00607021F813200C33C02B02F10102F8D17A
:10255C000C4B094ADC600824032014620A49FFF77B
:10256C0047FC01210320FFF72DFC084A1464C2E745
:10257C0088AF0020E0CB002000000B40AC5A0220BA
:10258C00FFFF100074CB00200121002000200B4025
:10259C00F0B516461F4602690346EFF3108072B67B
:1025AC00D2E8CF4F0121002CFAD1C2E8441F002CF5
:1025BC00F6D1BFF35F8FB3F902101D69002945DB1B
:1025CC00D3F814E001EB41023EF832400EEBC20CA2
:1025DC005C800024C5E88F4F80F310880598354641
:1025EC00CCF8100006983E46CCF81400BCF802005B
:1025FC00CCE902560130C0F30E00012838BF01208F
:10260C00ACF8020040EA0140D3F810C0EFF310859B
:10261C0072B6DCE8CF7F0126002FFAD1CCE8476FE9
:10262C00002FF6D1BFF35F8FB3F804C02EF832C081
:10263C0099801A69C2E88F4F85F3108801211C78A4
:10264C00DA68A14002F501535960F0BD0023C5E8DA
:10265C008F3F80F310884FF0FF30F0BD0346408968
:10266C00B0EB214F3ADD58690A1402EB420210B567
:10267C00D3F810C000EBC200EFF3108E72B6DCE89A
:10268C00CF4F0122002CFAD1CCE8442F002CF6D1EC
:10269C00BFF35F8F428889B292B28A4207D0002280
:1026AC001B69C3E88F2F8EF31088002010BD6FEAD2
:1026BC0042426FEA5242428001210022186999710C
:1026CC00C0E88F2F8EF3108893F800C0DA680846A4
:1026DC0002F5015301FA0CF1596010BD002070474E
:1026EC00EFF30582D2B282B1384B5A6A8A4202D2D7
:1026FC0000221046704714BF012200229B6A8342BD
:10270C0028BF42F001021046704770B584B00392A6
:10271C002F4A0646D368157818460C46029300F0EB
:10272C006DF8029B05F1040C53F82CC0039AACEB2A
:10273C00000C301A64EB0101604571F100010FDBF4
:10274C0020BF224B596AA14207D314BF0122002299
:10275C009B6AB34228BF42F00102104604B070BD20
:10276C00029200F053F8864264EB01010029029AB0
:10277C001BDB18492346CDE9001215483246FFF7FA
:10278C0007FF011E11DD114B5A6AA2421CD39B6A32
:10279C00B34217D30E48FFF761FF0C4B5A6AA242A3
:1027AC00D3D20022104604B070BD084B5A6AA24224
:1027BC00F7D3121B18BF01229B6AB34228BF42F009
:1027CC000102CAE7A242E5D120BFE3E700000B40BB
:1027DC0088AF0020C120002010B4054B054C064AE0
:1027EC00A04214BF1846581C10BCFFF733BA00BFE8
:1027FC0004BF002000800B4054AB00200346416A0C
:10280C000A46986A596A8A42FAD17047034B596A48
:10281C000A46986A596A9142FAD1704700000B40F7
:10282C00224B98420AD84FF47A73214A03FB00F0EA
:10283C00916A936A5B1A9842FBD870474FF47A738B
:10284C0000B5DFF86CC0A0FB0301DCF824201346B4
:10285C00DCF828E0DCF824209A42F8D110EB0E03C7
:10286C004A414FF0000C28BF4FF0010CBCF1000F97
:10287C0012D10F49496A8A4203D90D48416A9142E3
:10288C00FCD3914207D10A4902E0486A904202D136
:10289C00886A9842F9D300BD054B5A6A531C08BF8D
:1028AC001346F0D04FF0FF321346E6E79BC42000EE
:1028BC0000000B4000EB400C4FEA8C0C0CF1804CF0
:1028CC0070B50CF5803C049C1E46DCF80430A34229
:1028DC0038BF2346A0F10404E4B238BFCCF804306E
:1028EC00012C2DD94FF40065274B0CF5405ECEF82A
:1028FC00005053F820E0BEF1000F16D1DCF800E0D8
:10290C00012C8EEA421202F0E0020CF5805ECEF849
:10291C0000202AD94FF4006243F820600CF50053D4
:10292C001A60049BCCF8043070BD5D69B5FBFEFEEB
:10293C000EF1010E0EEB4E0EBEF1030EFCD2DDE7D6
:10294C000129CFD103240CF540531C60DCF808306E
:10295C00DB07FBD5DCF800300CF5805E83EA421314
:10296C0003F0E003CEF80030074B0122DCF8004006
:10297C004C4004F00304CEF8004002FA01F1DCF8FC
:10298C0008200A42FBD0C5E70CBF00204FF4803C66
:10299C0000B583B0CDF800C0FFF78CFF03B000BDCD
:1029AC00014B53F8200070470CBF0020F0B54FF4DA
:1029BC008034174601220E46054683B01146052089
:1029CC00124B0094FFF776FF334607FB06F62A46B8
:1029DC0001210F48009700F05DF8B5FBF6F50022D9
:1029EC00022104200B4B0094FFF764FF2B460022BE
:1029FC00012105200094FFF75DFF02220021062033
:102A0C00024B0094FFF756FF03B0F0BD006CDC02E4
:102A1C0000000540001BB7002DE9F04788469146A1
:102A2C009A46184D184E194F194CB54207D9A5F5B1
:102A3C003705A5F5D855BD42F7D1002019E007227E
:102A4C002919964602FB02FC04E0BEF1010EACEB28
:102A5C00020C10D0B1FBFCF38342F6D10CFB10132B
:102A6C00002BF2D10120C8F80010C9F80020CAF8D8
:102A7C0000E0BDE8F087013AE3D1A5F53705A5F5EF
:102A8C00D855D2E780A82DB880F8A932807D06DE13
:102A9C008017B42C10B5029C8E464FEA043C4CEACD
:102AAC00034C1C4BB3FBF1F30168B2FBF3F40029AC
:102ABC0020DB194A194B904214BF4FF480424FF45B
:102ACC00004217491A6003F580531A608B6832EA8A
:102ADC000303FBD1212200F540530433C0F800E07E
:102AEC0084601A600268002AFCDA0822C0F80CC064
:102AFC001A6010BD036803F03F037345D9D1836896
:102B0C00C3F30B03A342D4D1C36803F4EE23634590
:102B1C00CFD110BD001BB700008005400020024043
:102B2C0000000240024A034B12685A60704700BF13
:102B3C0030CB002000800D4000B54FF0804E184B7C
:102B4C00184ADFF86CC0DA61174A03F54053C3F832
:102B5C0000E0C2F808C04FF0E062F1B1A3F5805379
:102B6C001A6020B94FF00042104B1A6000BD4FF4B0
:102B7C007A7303FB00F0B0F1807F2ABF6FF07F43C4
:102B8C00034618464FF08042DFF828C00449CCF8C1
:102B9C000030064B48601A6000BD1A60E1E700BFC8
:102BAC0000800D402131B76A00A0014000A00D400B
:102BBC00F3FFFF0130CB0020012300EB400080002D
:102BCC0000F1804000F5841041600360704700BF45
:102BDC000023DB8A002242E800F2520201D41021C9
:102BEC0018470421184700BF034AD2F82838002B95
:102BFC00FBD0BFF35F8F704700000E400021044BE9
:102C0C00044ABFF35F8F43F8041B9342F9D170471A
:102C1C000C080E402C080E404FF42A6C4FF48D70AB
:102C2C00054A064B0649C2F800C0D06019605368CB
:102C3C00002BFCDA704700BF0080044000A0044069
:102C4C0000B0FA00704700BF08B50148FEF7C8FF96
:102C5C0078AB002038B5054C054DAC4204D254F885
:102C6C00043B9847AC42FAD338BD00BF40B60020B5
:102C7C0080B600200648DFF828C0064B064A0749F4
:102C8C00C0F800C01A608B6832EA0303FBD17047AE
:102C9C000020024000300240F6FFF3030000024027
:102CAC007F3BEFEF044BDB6CB3F5004F03D14FF4DC
:102CBC008022024BDA647047000011500020115042
:102CCC004FF0E022044BD2F8881D0B43C2F8883D2C
:102CDC0010EE3004704700BF030330006FF060410A
:102CEC00044B054A19609368DB4333F06043FAD117
:102CFC00704700BF003002400000024010B545F2A2
:102D0C005320FFF765FFBDE8104003460420184729
:102D1C0010B545F25320FFF75BFFBDE810400346AA
:102D2C0001201847FFF72AB870B50D490D4D0E4E0E
:102D3C006D1AAC10442C224628BF44223046920017
:102D4C0006F0AAFBB5F5867F07D8331F074A2B443C
:102D5C000134442C43F8042FFAD1054B9E6070BD0E
:102D6C0000000010100100100000002011010010E4
:102D7C0000ED00E0002370B52B4C82B0C4F8843019
:102D8C00FFF74AFF0122294BDA63636C012BFCD15C
:102D9C000321264A244B11639C6B012CFCD1022687
:102DAC00052521460523224A22480096FFF772FE8C
:102DBC0021462B46204A21480095FFF76BFE002246
:102DCC00042031461E4BFFF7E1FD21462846002228
:102DDC001C4BFFF7DBFD0022082011461A4BFFF7B6
:102DEC00D5FD002209201146174BFFF7CFFD00221D
:102DFC0006201146134BFFF7C9FD0022114B07208B
:102E0C001146FFF7C3FD0420FFF7CAFD00240F4B4A
:102E1C00A3FB0035AD0CE0B229460134FFF7CCFE24
:102E2C00062CF8D102B070BD00000140003001400A
:102E3C00002F685900000540008C86470080054033
:102E4C00001BB70080D1F008006CDC0283DE1B4352
:102E5C0086B003B451FC0804CDE9020151FC09040D
:102E6C00CDE9040151EC0A04CDE9060103BCF0479D
:102E7C00BDE800504EEC00C4BDE800504EEC01C45F
:102E8C00BDE800504EEC02C400BD000000B5FFF7D9
:102E9C00DFFF02E010FE30F4F8D441EC100443ECF8
:102EAC00112400EE010410EE010480EE200451EC1C
:102EBC001004704700B5FFF7CBFF02E010FE30F4B2
:102ECC00F8D441EC100443EC112400EE010410EE94
:102EDC00210480EE200451EC3004704700B5FFF75C
:102EEC00B7FF02E010FE30F4F8D410B541EC10043A
:102EFC0043EC112451EC040453EC0524A0FB024CCC
:102F0C005FF0000EE0FB03CEE1FB02CE4CEC204464
:102F1C000024E1FB03E444EC30E480EE200451ECAB
:102F2C005004BDE81040704700B5FFF791FF02E078
:102F3C0010FE30F4F8D441EC100443EC112451ECA5
:102F4C002104A0FB01126FEA820252FB100052FB1B
:102F5C0012F252FB1000A0EBD07C53EC04245CFB6F
:102F6C0013F153EC1524A1FB022001FB030053ECDD
:102F7C004424A2EB000050FB1CF24FEA111312EB9D
:102F8C00017043EBE27140EA515020EA915020F07D
:102F9C00070053EC7524A0FB023C53EC752400FB9A
:102FAC0003CC01FB02CC53EC0424ACEB824C40EA86
:102FBC005C70A0F1010041EC400480EE200451EC67
:102FCC007004704700B5FFF743FF02E010FE30F4C9
:102FDC00F8D441EC100480EE220410EEB2047047D9
:102FEC0000B5FFF735FF02E010FE30F4F8D440ECEA
:102FFC00700400EE010410EE210480EE200451EC6C
:10300C003004704700B5FFF723FF02E010FE30F4E8
:10301C00F8D440EC600400EE010410EE210480EEC4
:10302C00200451EC3004704700B5FFF711FF02E0AB
:10303C0010FE30F4F8D441EC800400EE010410EEE4
:10304C00010480EE400410EE1304704700B5FFF746
:10305C00FFFE02E010FE30F4F8D441EC800400EEE8
:10306C00010410EE010480EE400410EE33047047AE
:10307C0000B5FFF7EDFE02E010FE30F4F8D441ECA1
:10308C00100443EC112400EE010410EE3004C0F3E4
:10309C000070704700B5FFF7DBFE02E010FE30F465
:1030AC00F8D443EC102441EC110400EE010410EEB2
:1030BC0030F48CBF01200020704700BF00B5FFF733
:1030CC00C7FE02E010FE30F4F8D443EC102441ECBF
:1030DC00110400EE010410EE30F42CBF012000208E
:1030EC00704700BF00B5FFF7B3FE02E010FE30F4EE
:1030FC00F8D441EC100443EC112400EE010410EE62
:10310C0030F42CBF01200020704700BF00B5FFF742
:10311C009FFE02E010FE30F4F8D441EC100443ECB6
:10312C00112400EE010410EE30F48CBF01200020BD
:10313C00704700BF404261EB410140F2F334B1FAF9
:10314C0081F20C2A0CD2153211FA02F3C2F12002D0
:10315C00D04021FA02F12244584141EB0251704710
:10316C0069B1C2F12B0230FA02F3C2F12002914094
:10317C0090401943A4EB020201EB0251704701008D
:10318C004FF00000A4F12004D9D17047012767F358
:10319C001F5117FA03F817D0A0FB080701FB0871A1
:1031AC00A1FB06785FEAD8469219A6FB047806FBC9
:1031BC000588090351EA1051D7EB003061EB080187
:1031CC00A94238BF70470BE00C33012717FA03F8FC
:1031DC000FD0A0FB080701FB0871A94238BF70474C
:1031EC0008BFA04238BF7047001B61EB05010132DC
:1031FC00704703F1200311FA03F6D3F12003D840F2
:10320C00D94030437047000000000000000000006F
:10321C000453B1086018850FC8E5F22A6E07271E03
:10322C000D12B2210412572F12557CBCDA30723FAA
:10323C0017A717A55531994E9D0DBF0AEEE0AB5F50
:10324C00E3EF6D9C7636AD6F697BCCE33D62BD7E62
:10325C00F0810682F3FA428F37D5B78A5313C89E92
:10326C007FABB320491570AF0000000000000000D8
:10327C00025E88155580FF00907806B1A602FE010B
:10328C00DC4E21F0EB88FB027A7C801F1615F803CC
:10329C003C5DA9D110A9F304AA466CF5C146EE0514
:1032AC00FF65E4EB09F0E70613C00C9EC3A6E0072C
:1032BC00E1BFEC91C46CD808D5AF5EFFDC43CF09FD
:1032CC00466A72E4D72DC50A237E6E197B2CBA0B85
:1032DC00BFF571648741AE0C61DFB88CB86EA10D7F
:1032EC0009A9856DC5B5930E3153B1086018850FCA
:1032FC003071E498359875105915550580FF0F00FD
:10330C0009C3EB8F80FB2F00B1910E9A82F34F0013
:10331C001FE7FD2287E76F00C3A09A298FD78F0084
:10332C004F4366AC9BC3AF00412A83A9ADABCF0022
:10333C004FB7B41EC68FEF00B6815F09E66F0F0161
:10334C00678589660E4C2F011A52DA3240244F01E0
:10335C00483A9B6A7CF86E01FF81B709C4C88E019C
:10336C009C8DBC0B1895AE017010DA6B795DCE019B
:10337C003A3BE224E921EE0138739533427FECA00D
:10338C003114FAF5BD8689916B02FAE6E0F291836D
:10339C00E682120713A85177212621686AB2736A54
:1033AC009D0DBF0AEEE0AB5F19B4E0B71CB66A54D2
:1033BC009596E53DEF07A548D1CBE555DC0E4E3C87
:1033CC00CE68ADE839B5A432CB3CFA96D9569A28DA
:1033DC00C9B21CA1F9FCAE21864B6BE58AD2F01662
:1033EC000453B1086018850F02C00C9EC3A6E007F9
:1033FC000000000000000000AC79CFD1F71772B1CB
:10340C00293BAAB84FEAC12040F00040490043F1E3
:10341C00200340F20001C3F6F071C3F10B0320FA54
:10342C0003F038BF7047404261F1000170475FEA1A
:10343C00D17CC1F30A53A3F2FF330C2B62DA13F1E4
:10344C00200FDFDD2DE9F0413C4C70CC4FF0000239
:10345C00FFF79CFE1CF0010F04D06FEA0202201A49
:10346C0065EB010102F2FE3C40F2FE739C455CD21E
:10347C000A0F334B03EBC2030CCB02F03F0545F0B4
:10348C004005801A99410A0E2E4B03EBC20318CB50
:10349C0002F580725543C01AA1414A0D2A4B03EB29
:1034AC00C20318CB124402F5805205FB0255C01A18
:1034BC00A1418A0252EA905242F1000282FB02348C
:1034CC005B0D53EAC423C01841EB545184FB023406
:1034DC004FF0553383FB043454FB11F304EB93048A
:1034EC0010EB440241EBE473E900A1FB0240C1FB89
:1034FC000301400A50EBC1504FEA512151EB0C51E2
:10350C00BDE8F081B3F5806F07D150EA01320CBFF2
:10351C0021EAE17141F400217047002000211CF0E8
:10352C00010F08BFC7F6F07170474FF000004FF065
:10353C000001A8BFC7F6F071BDE8F081F832002099
:10354C000831002068310020F831002040F20001E1
:10355C00CFF6F0710020704750EA013218BF41F4E9
:10356C00002170477FEAA65540F019814FF4805432
:10357C0020E18CEA11331B0640F0EE80BCF1000F09
:10358C0067D1C90451EA5031C004B1FA81F4202C3E
:10359C004BD20125A540A0FB052301FB0533A0FB65
:1035AC0003C5A1FB02C6E1FB6356B2EB152263F126
:1035BC000003B2EB066273EB1623A0FB06C7A1FB5C
:1035CC0005C8E1FB66784FF05535A7FB05C65FF0E3
:1035DC00000CE8FB056C16EB0C064CF1000C12EB26
:1035EC00963243F1000312EB8C4243EB9C3358FBB5
:1035FC0011F55FF0333755FB11F656FB17F8A5EBB9
:10360C00581756FB11F5C2F6802656FB15F507EB3D
:10361C001537B2EB472063EBD751C4F58064A4F1A6
:10362C001504FFF78CFDBDE8F081B0FA80F410FAB8
:10363C0004F1A0FB01234FF00000B0EB132061F16B
:10364C000001C4F58064A4F13504FFF778FDBDE8F2
:10365C00F081890451EA90318004404261EB4101D0
:10366C00B1FA81F4202C4ED2013C0125A540A0FBDF
:10367C00052301FB0533A0FB03C5A1FB02C6E1FB3F
:10368C00635612EB152243F1000312EB066253EB67
:10369C001623A0FB06C7A1FB05C8E1FB66784FF01B
:1036AC005535A7FB05C65FF0000CE8FB056C16EB67
:1036BC000C064CF1000C12EB963243F1000312EBAA
:1036CC008C4243EB9C3358FB11F55FF0333755FBC1
:1036DC0011F656FB17F805EB581756FB11F5C2F609
:1036EC00802656FB15F507EB153712EB472043EBFD
:1036FC00D751C4F58064A4F11504FFF720FD41F007
:10370C000041BDE8F081B0FA80F410FA04F1A0FB9E
:10371C0001234FEA1320C4F58064A4F13504FFF7AC
:10372C000EFD91F00041BDE8F0815FEA410CBFF461
:10373C000DAF5FEA5C5C3FF409AFACF2FF3CBCF54B
:10374C00806F3FF409AF012262F31F512DE9F04164
:10375C00BCEBEC7F3FF40DAF0C0C4E4D05EBC405F0
:10376C0095E80C0002F03F0505F14005A5FB0006AD
:10377C0005FB01616FEAE14404F01F04464D05EBC3
:10378C00C40560CD521943EB060304F58074A4FB09
:10379C00000604FB01667FEA26643FF4E3AE3F4D6E
:1037AC0005EBC40522CD521843EB050341F201058C
:1037BC0005EB44046404A4FB0050C4EBC401E4FB1B
:1037CC00060180EAE17481EAE175A5FB0567A4FBBB
:1037DC0005487F084FEA360616EB080647F1000746
:1037EC008C0254EA905444F10004801B61EB0701F5
:1037FC0054FB14F555FB14F655FB15F74FF05534E7
:10380C0056FB14F6B6EB173610EB860041EBA6719F
:10381C00101A63EB0101224A24CA1CF1010C0BDDC6
:10382C00A2FB0C230024E5FB0C34121A8B4164F12F
:10383C0000045FF080410CE0DCF1000CA2FB0C23D7
:10384C000024E5FB0C3482184B4144F100045FF07A
:10385C0040414CB91C0013000022B1F100711CB99D
:10386C001C000023B1F10071B4FA84F5A5F11D061A
:10387C00A1EB0651AC4013FA05F0C5F12005EB4065
:10388C001C43EA401043C00A50EB445041EBD42196
:10389C00BDE8F081F831002068310020F8310020BB
:1038AC00F8320020012956D001EBD1725210012AB6
:1038BC0007EE100A0B4645D0F0B50029B8BF03310E
:1038CC00891001290C4685B062D01946002BB8BF6F
:1038DC00D91DC91001290D4642D01946002BB8BF7D
:1038EC0003F10F01091101290E4654D01946002B82
:1038FC00B8BF03F11F01491101290F4651D01946D8
:10390C00002BB8BF03F13F018911CDE902230190CF
:10391C00FFF7C8FFDDE9022307EE900A17F0010F4D
:10392C0067EEA77A9DED017A38D1F60767EEA77A94
:10393C0001D567EE877AED0767EEA77A12D567EEA9
:10394C00877A0FE067EE077ADB0748BF67EE877A66
:10395C0017EE900A704707EE900A17EE900A704720
:10396C00F0EE477AE00767EEA77A01D567EE877A23
:10397C0067EEA77AD10748BF67EE877ADA0767EE5A
:10398C00A77A01D567EE877A17EE900A05B0F0BDDD
:10399C00F0EE477AECE7F0EE477ACCE767EE877A01
:1039AC00C3E7F0EE477AC0E710B5021E0C4682B0B2
:1039BC0014DAC1F3C7537F3B172B0CD80120C3F18A
:1039CC00170C00FA0CF00138084204D183B321FA29
:1039DC000CF1CB072CD402F10042104607EE904AB2
:1039EC00FDEEE77A12F0FF4317EE901A05D0B3F113
:1039FC00FF4F02D0C2F316039BB3002940D001F154
:103A0C002003402B1DD904F091FFFFF78EFE0246D8
:103A1C000B462046CDE9002304F088FFDDE90023A6
:103A2C00FFF760FAFFF703FDFFF7D0FA02B010BD05
:103A3C00214602F10040FFF7B7FF00F1004002B051
:103A4C0010BD002908DA07EE100AF7EE007AC7EE6F
:103A5C00877A17EE900A494202B0BDE81040FFF792
:103A6C0021BFD20D7F3A01F3080101FB02F303F1F0
:103A7C007F02002A0CDDFE2A06DD4FF0FF40DEE758
:103A8C004FF07E5002B010BDDB0503F17E50D6E73F
:103A9C000020D4E707EE900AB7EE007AF4EE477AEE
:103AAC00F1EE10FA2DD011F0FF420B4626D0FFEEAE
:103ABC00006AF4EE667AF1EE10FA10B582B021D1FC
:103ACC00B2F1FF4F63D0CA0DFF2A3FD0594812F014
:103ADC00FF020CD07F3A5DD4162A08DC4FF0010CA3
:103AEC00C2F117020CFA02F2013A1A4252D117EE45
:103AFC00900A02B0BDE81040FFF756BF17EE100A4F
:103B0C007047704710F0FF4F15D100294FEAD15282
:103B1C0026DB7F3A172A20D80121C2F117008140F9
:103B2C000139194219D11AB123FA00F0C10714D581
:103B3C0017EE900A08E04FEAD05CBCF1FF0F42D1BF
:103B4C00002B0ADB4FF0FF4002B010BD40F27F1C8F
:103B5C005FFA8CFCBCF17E0FF4D8002002B010BDD3
:103B6C00D2B27F3A172AEDD80121C2F1170C01FA13
:103B7C000CF101391942E5D122B123FA0CFC1CF0ED
:103B8C00010FDFD000F0004040F0FF40DCE717EE03
:103B9C00100AD9E70028D5DB17EE900A0C4604F082
:103BAC00C5FEFFF7C2FD02460B462046CDE90023B9
:103BBC0004F0BCFEDDE90023FFF794F9FFF737FCB6
:103BCC00FFF704FAC0E740F2FF1EF4454FEAD35268
:103BDC000AD0FF2ABCD072457FF479AF5FFA8CFC17
:103BEC00BCF17E0FAED9B8E7002B10DB7F3A172A59
:103BFC00A8D80121C2F11700814001391942A1D185
:103C0C001AB123FA00F0C2079CD50B489CE7D2B23C
:103C1C007F3A172AA1D80121C2F11700814001393E
:103C2C0019429AD11AB123FA00F0C30795D54FF077
:103C3C00004089E7000080BF000080FF000000000A
:103C4C000000000000000000DB60BE284A059193D4
:103C5C00F4D5097F70374D7D66A5D83610E4104F2A
:103C6C00AFF224024B1102EB830201F01F034FF061
:103C7C0001049C40A4FB0034D568A5FB0456956850
:103C8C0005FB0466E5FB0356556805FB03667047A8
:103C9C00410201D150F0004050F480007047F0B563
:103CAC00012363F3DF50C1F109014FF07E07FFF7E9
:103CBC00D7FFB30F53F100039C44B6EB8376B200ED
:103CCC0028BF5242B2F1805F0BD20231FFF7C8FF1E
:103CDC0096EA260242F10002B2F1805F01D2023F65
:103CEC00F3D50A4CA2FB0424B4FA84F29440240ABF
:103CFC00A7EB020244EBC250C10DD1F17F01F60FCC
:103D0C0000EBC673BDE8F04073E00000A2DA0FC907
:103D1C0011F1800FBCD030EACC7248BF0CF1020C10
:103D2C0020F0004000EE100A0DA2F2EC032A22EE65
:103D3C00802A11F1080FB9FE422AB0DDA2EE630A07
:103D4C00A2EE430A10EE103AFDEEC21AC3F3C752AC
:103D5C00782AA4D3D2F17F0111EE902A944448E042
:103D6C0083F9223F7A7795B60010C93F07B5C0F3A7
:103D7C00C751FF2925D000F032F8BDE80640CEF837
:103D8C0000000ED2C9438CEAD17C63EEA02AE1EE8E
:103D9C00032A73EE622A12EE900A80EACC7010604D
:103DAC0000BD8CEAD17C21EE232AA3EE602A8CEA9A
:103DBC00D37133EEC22A12EE100A80EAC170106081
:103DCC0000BD4102BDE80E4001D150F0004050F45E
:103DDC0080001060186070475FF0000C01E05FF02D
:103DEC00010CC0F3C751A1B3D1F17F0190D920EAE6
:103DFC00CC7323F0004000EE100AC0F38440203056
:103E0C0030FA01F1834A51F10001B2EC024A02EBA3
:103E1C00810202EBC102D2EC032A70EE620A20EEA0
:103E2C00A01A5FEA5C0C61EE201A15D221EE041A7E
:103E3C0061EEA41A70EEE10A21EE232AA3EE602AA9
:103E4C008CEAD37133EEC22A12EE100A80EAC170EA
:103E5C00704700F00040C7E761EEA41A70EEE10A6B
:103E6C0021EE041A63EEA02AE1EE032A73EE622A15
:103E7C0012EE900A80EACC70704700BFAFF300805E
:103E8C00C1FEFF3E25AA2A3E000000000000803F34
:103E9C000000000061C9FC3CCDE07F3F1CBFFC3C36
:103EAC007605813DFE7D7F3F9EEF803D090CBF3D39
:103EBC000FE37E3F22C5BE3DB624FF3D14047E3F7A
:103ECC00E27BFE3D13071F3E48EB7C3FA0631E3E8A
:103EDC006D30403E1D817B3F15103F3EA2AD603ED4
:103EEC00CFDC793F3EE15E3E7B0D803EFA08783FA9
:103EFC0096717D3E6E988F3E65FF753F68B88D3E1E
:103F0C00F4E19F3E939E733FFD4B9D3EC654B03EE5
:103F1C00AEF7703FB3DDAC3EC589BF3E604B6E3F24
:103F2C000A1ABB3E26C4CF3ECA356B3F631CCA3E41
:103F3C00F254E03E66D1673F0739D93EDDF0EF3EE3
:103F4C004B66643F1641E73E312B003F8894603F3F
:103F5C000FC3F53E07E4073FA2C55C3F2B99013F19
:103F6C00C51F103F8F7D583F65A1083F8AF6173F4C
:103F7C00B534543FCA310F3FE2FF1F3F599B4F3FAF
:103F8C00D7C8153F4606283F6BCF4A3FC4371C3F66
:103F9C004130303FE0B9453FE49A223FA71D383FFE
:103FAC00CA98403F20A6283F2FC73F3FAC763B3FE7
:103FBC004A562E3FDB13483FCCB6353F6B52343F4D
:103FCC0079C74F3F2F35303FD0B4393F52DD573F83
:103FDC0070412A3F912D3F3F26CE5F3F9F3E243FAD
:103FEC00C35D443FF125683F50C21D3F1C9D493FB6
:103FFC00E13B703F4150173FBF7E4E3F7810783FFA
:10400C0071ED103FAF06533FD4F47F3FA75A0A3FE0
:10401C009B64573F803D002038B50446094805F0A5
:10402C007BFC204604F0DAFE0546064805F03AFD16
:10403C002DB1054B2C449C4201D8284638BD034871
:10404C00FDF7CEFD30B600200000082084AB002028
:10405C0070B504460E460B4805F05EFC3146204612
:10406C0004F076FE0546074805F01CFD35B106FB4D
:10407C000454054B9C4201D8284670BD0348FDF7FB
:10408C00AFFD00BF30B600200000082084AB00203C
:10409C0010B50446054805F03FFC204604F0A6FE8A
:1040AC00BDE81040014805F0FDBC00BF30B6002053
:1040BC00704700BF2DE9F04F83B00F461146DDE984
:1040CC000EB292079846DDE90C93064629D00D46B0
:1040DC009BB109EB030405EB040A01950D460D9306
:1040EC00AAEB040214F8010D43463946B047A1452A
:1040FC00F6D129460D9B019D1D440F9B9B070CD5AA
:10410C006C1AA34509D92A46434639462020013466
:10411C00B0475C4505F10105F5D3284603B0BDE871
:10412C00F08F5B4515D28A461C468946ABEB0305DE
:10413C000D4452464346394620200AF1010AB04745
:10414C00AA45F6D149462346DDF83090002CC0D163
:10415C00E3E70D46002BBCD1DFE700BF2DE9F04FA4
:10416C000F460F9906469DF82C008D079046DDE909
:10417C000CA299468346099CDDF828C00E9B49D4B5
:10418C00002B42D1944545D201F0010504F1FF3ECC
:10419C003020E64405E00CF1010C62450EF8010FED
:1041AC0002D9BCF1200FF6D1002D00F087806345B9
:1041BC0030D9601E4FF0300E604405E00CF1010C5C
:1041CC009C4500F801EF25D0BCF1200FF6D1CD06AF
:1041DC000ED5480551D4624564D0634562D0BAF11E
:1041EC00100F4DD0BAF1020F55D0BCF1200F2DD1CC
:1041FC002022CDE90B310A924B46424639463046D5
:10420C000994BDE8F04FFFF755BF11F001052ED111
:10421C009445BBD3CD061ED54805E0D4BCF1000FA8
:10422C00D9D1BAF1100F5FD0BAF1020F74D030228D
:10423C004FF0010C2270BBF1000F12D1480742D590
:10424C002B2204F80C200CF10102D2E762460CF18F
:10425C00010C3020A054BCF1200FC9D0BBF1000FD1
:10426C00ECD02D2204F80C200CF10102C1E798B31C
:10427C00944503F1FF3389D399E7BAF1100FB7D105
:10428C008D063DD5BCF1200FB2D0582204F80C207D
:10429C000CF1010CA9E7BCF1200FA9D062460CF17E
:1042AC00010C08E0BCF10102BBD0BAF1100F35D003
:1042BC00BAF1020FCDD16220A05496E7CD06CAD533
:1042CC00480588D58BE70A0749BF2022624604F8C7
:1042DC000C200CF101028CE711F00C0F00D0013B0B
:1042EC009445FFF453AF62E78A0613D47822227008
:1042FC0030224FF0020C6270BBF1000F9ED0B0E781
:10430C00BCF1200F3FF474AF782204F80C200CF1B0
:10431C00010C6AE75822EAE76222E8E78D06ACF165
:10432C00020004D54FF0580E04F800E091E74FF06E
:10433C00780E04F800E08CE72DE9F04F91B0DDF831
:10434C0068E099460F4690469DF86C601C9BDDF822
:10435C007CC0BEF1000F04D11CF4806F32D12CF064
:10436C00100C1CF0200F14BF412461240022A4F176
:10437C000A05834608AC02E0202A86460ED0BEFB16
:10438C00F3F003FB10E1092994BF303149199E4524
:10439C00217002F1010204F10104EDD2584608AD7E
:1043AC001E99CDE9012605911D994246CDE90331AF
:1043BC00CDF818C04B4639460095FFF7CFFE11B02B
:1043CC00BDE8F08F72462CF0100C08ADE8E700BF8A
:1043DC002DE9F04F97B0209E219C099156EA0401DB
:1043EC009DF888B0DDF8A0E0DDE9248904D11EF445
:1043FC00806F2EF0100E42D11EF0200F14BF4FF024
:10440C00410A4FF0610A0DF1380C67460025CDE9E1
:10441C000AC0CDE90C23AAF10A0ACDF8A0E003E00A
:10442C00202D06460C4613D0214642464B463046BC
:10443C0004F0D4FAD2B2092A94BF30325244464521
:10444C0074EB09043A7005F1010507F10107E7D295
:10445C00DDF8A0E0DDE90AC0DDE90C232799CDE900
:10446C00015B05912699CDF818E0CDE90381CDF8D3
:10447C0000C00999FFF772FE17B0BDE8F08F002558
:10448C000DF1380CEAE700BF2DE9F04F95B01E4650
:10449C00DDE91EABDDE92187209B0D460A900B92CE
:1044AC00099352465B4650465946FEF7E5FD0028F7
:1044BC0040F09480504659464FF0FF32624BFEF765
:1044CC0029FE002840F08A80504659464FF0FF32B2
:1044DC006FF48013FEF7E2FD00287FD15046594659
:1044EC0000220023FEF7DAFD002840F09481CDE98C
:1044FC0006ABDDE9061217F480600B460C4607F498
:10450C0000610C921291139077D1134340F09E806E
:10451C00002940F099810623099317F002020C92AE
:10452C0040F094814346042B38BF04230421914668
:10453C00043B0E9112935046594600220023FEF77D
:10454C00ADFD002840F0FC819DED067B129B0B9A83
:10455C000393099B8DED007B029327F40063049376
:10456C00294633460A9800F03BFA024617F0200F12
:10457C000CBF65204520334629460A9C571CA04792
:10458C00052305930E9B0020013B04930A23CDE9E0
:10459C00023089EAE973A3EBE9734FEAD971CDE9EB
:1045AC0000313A46334629462046FFF7C5FE0C9BA0
:1045BC0007467BB10B9BA0EB030AD0450AD93A46C0
:1045CC003346294620200AF1010AA047D04507F1BD
:1045DC000107F4D8384615B0BDE8F08F3346DDE955
:1045EC0009402946CDE91EABCDE921870B9A2094D1
:1045FC0015B0BDE8F04F00F0F3B90C9A54EA020381
:10460C0026D1129B002B88D04FF00009099B4B45FB
:10461C0000F3D28100245046594600220023FEF7B5
:10462C003DFD002840F0FD809DED067B27F40063E6
:10463C0043F4806322938DED1E7B33462946CDE9EE
:10464C0020480B9A0A98D3E7FFFFEF7F06230993C4
:10465C000C9BC3F30A50A0F2FF30FEF7C5FCB4A3C9
:10466C00D3E90023FEF73EFCB3A3D3E90023FEF706
:10467C0011FC0C9BCDE90E01C3F3130343F07F51E6
:10468C0020460022A44B41F44011FEF717FC96A3E0
:10469C00D3E90023FEF726FC02460B46DDE90E01AA
:1046AC00FEF7F8FBFEF7C4FC8146FEF79DFC90A3D9
:1046BC00D3E90023CDE90C01FEF714FC0022974B43
:1046CC00FEF7E8FBFEF7B4FC8BA3D3E9002304460A
:1046DC00DDE90C01FEF706FCCDE90C012046FEF7E6
:1046EC0083FC87A3D3E90023FEF7FCFB02460B46B1
:1046FC00DDE90C01FEF7E2FB02460B46CDE90C238B
:10470C00FEF7F0FBCDE90E01DDE90C0102460B468C
:10471C00FEF7C0FB0022CDE91001DDE90E01804B54
:10472C00FEF706FC00227F4BFEF7B4FB02460B465D
:10473C00DDE90E01FEF7FCFB00227B4BFEF7AAFB2A
:10474C0002460B46DDE90E01FEF7F2FBCDE90E0148
:10475C00DDE90C2300204FF08041FEF7AFFB024651
:10476C000B46DDE90E01FEF795FB02460B46DDE933
:10477C001001FEF7DDFB00226C4BFEF78BFB04F205
:10478C00FF3C00224FEA0C53FEF7ACFB02460B46F3
:10479C00CDE90C23DDE90623FEF7BCFC48B1DDE9CD
:1047AC000C0100225F4BFEF7C3FBCDE90C0109F1B4
:1047BC00FF39DDE90C34CDE9103409F16303C62B64
:1047CC0007F00203129A0C9310D8002A75D1B8F195
:1047DC00040F40F28380002B00F0E48004230E933E
:1047EC0002230C93B9F1000F0CD1A4E6002A35D1A9
:1047FC00B8F1050F04D9002B00F0E28002230C93D2
:10480C0005230E93DDE90601DDE91023FEF790FB8D
:10481C00CDE906018FE60BF10043CDF818A0079304
:10482C0067E627F4006343F48063CDE920482293C4
:10483C003346DDE906673446294607F10045CDE9E4
:10484C001E450B9A0A98D3E60524E4E604220023BD
:10485C000E920222994612930C926CE605230E934B
:10486C00DDE9101251EA02033FF4D0AEDDE9060196
:10487C0025A3D3E90023FEF739FC48B1DDE9060195
:10488C0023A3D3E90023FEF709FC00287FF4BEAE76
:10489C00099BABB1139A002A67D0013B09930E9B7D
:1048AC00984504D90C9A002A6DD002230C9300234E
:1048BC001293B9F1000FA5D13DE604230E93CFE777
:1048CC000E9B984567D90C9A002A5CD0099B1293D1
:1048DC0002230C93B9F1000F94D12CE604230E9310
:1048EC00B9F1000F8ED126E661436F63A787D23FE3
:1048FC0071A379094F930A401655B5BBB16B0240B1
:10490C00EF39FAFE422EE63F2D431CEBE2361A3FFE
:10491C000000000080842E410000F83F0000E03FC2
:10492C0000002C4000002440000018400000F03F24
:10493C00FB799F501344D33FB3C8608B288AC63F82
:10494C00129BDDE906A40393099B04F1004B02932F
:10495C0027F400630B9A049329463346CDE900AB48
:10496C000A9800F03DF8024600E60E9B98452DD9BA
:10497C000C9A42B1139B129302230C93B9F1000FC2
:10498C007FF440AFD7E5A8EB03031293B9F1000F06
:10499C007FF438AFCFE5099B1293B9F1000F7FF488
:1049AC0031AFC8E504230E93A8F104031293B9F1B7
:1049BC00000F7FF427AFBEE5A3EB09035C1E2AE6CC
:1049CC0005230E93A8F1050312931BE7139B129377
:1049DC00B9F1000F7FF416AFADE500BF0000000089
:1049EC002DE9F04F97B0DDE92089CDE90501DDE92E
:1049FC00225B07920C9342464B4640464946DDF8F3
:104A0C0090A0FEF739FB002840F0A78140464946AC
:104A1C004FF0FF326FF48013FEF740FB002840F09C
:104A2C00C080404649464FF0FF32B14BFEF772FB57
:104A3C00002840F09680AAA3D3E9002340464946BB
:104A4C00FEF768FB00287ED1A7A3D3E900234046DC
:104A5C004946FEF723FB002875D140464946002203
:104A6C000023FEF71BFB002840F090800D901AF4F9
:104A7C00806F08BF062530212B460EAAA5F1200613
:104A8C0005E0013BB34202F8011B00F02681092B23
:104A9C00F7D81E46ED1A49464046FEF7C9FA954B23
:104AAC00044603EBC60393ED007B8DED087BFEF70C
:104ABC009BFA02460B4640464946FEF7FFF9DDE9F4
:104ACC000823FEF70FFACDE90A01FEF7C3FA0746F1
:104ADC00FEF79CFA02460B46DDE90A01FEF7EEF9F9
:104AEC000022854BCDE90A01FEF714FB002869D0A2
:104AFC0001373846FEF78AFA02460B46DDE9080113
:104B0C00FEF7E0FA08B100270134002E68D00DF151
:104B1C003703DFF8F8C158190DE0ACFB0721C908C1
:104B2C0001EB8102A7EB42023032092F00F8012F72
:104B3C0040F2BE800F46202D06F1FF3605F101052F
:104B4C00EBD1202567E00C9B0598CDE92089DDE9A8
:104B5C000612CDE923BA229517B0BDE8F04FFFF746
:104B6C0093BC1AF0040F18BF0423DDE906120ABF28
:104B7C000323624C624C219305980C9BCDE922BA1D
:104B8C00209417B0BDE8F04FFFF794BA4B4642465D
:104B9C0000200021FEF792F90123804689460D93EF
:104BAC0065E70424DDE906120C9B0598554DCDF8FC
:104BBC008CA0CDF888B0CDE9205417B0BDE8F04FEB
:104BCC00FFF778BA0022DDE90A014B4BFEF766FAD3
:104BDC0000289AD1002F40F0BC800137002E96D1CE
:104BEC002046FEF701FA02460B4640464946FEF7C0
:104BFC0065F90022404B06460F46FEF74FFA40B9C6
:104C0C003046394600223C4BFEF784FA002800F06F
:104C1C009C800DF137033C4859190EE080FB04765B
:104C2C00C2EBA60202EB8206A4EB460404F13006AA
:104C3C000135144601F8016F52B3202D4FEAE4728E
:104C4C00ECD10AF00302012A14D1BBF1000F11D0F0
:104C5C000D9A002A5CD00BF1FF3BBBF1200F09D958
:104C6C0030222B4404E001355D4503F8012F13D2AB
:104C7C00202DF8D10EACCDE902BADDE906120C9B61
:104C8C00059801950094FFF715FA17B0BDE8F08F61
:104C9C000AF00302012A6FD0202DEBD00D9B002BC4
:104CAC003FD02D220DEB050383F838200135E1E7C9
:104CBC00202D3FF446AF30212E445A1905E0013522
:104CCC00202D02F8011F3FF43CAFB542F7D12E2244
:104CDC006E44013586F838209DE72025DBE600BFC1
:104CEC000000000065CDCD410000000065CDCDC1B8
:104CFC00FFFFEF7F10AE00200000E03FD0AB0020A4
:104D0C00D8AB0020E0AB002067666666CDCCCCCC7F
:104D1C001AF00C0F2CD00BF1FF3B5D45A0D3202DCE
:104D2C00A8D01AF0040F06D02B220DEB050383F844
:104D3C00382001359EE71AF0080F9BD020220DEB8E
:104D4C00050383F83820013594E7013424F001047D
:104D5C005FE7FB077FF5D9AE3FE70324DDE90612D9
:104D6C000C9B05980B4DCDF88CA0CDF888B022E7A4
:104D7C005D45FFF475AF7DE7BBF1000F8CD00D9A4C
:104D8C00002AC5D00BF1FF3B5D45FFF469AF202D28
:104D9C0087D16FE7DCAB002000B9704700F0E8BCAE
:104DAC0010B1D1E900311847704700BF0000000076
:104DBC002DE9F04F9146BD4CBD4AB1F1000B8FB0BF
:104DCC0018BF804614601878BA4ADDF860A008BF96
:104DDC009046002800F071821C46002508E02A4607
:104DEC004B465946C04701352078002800F00A810F
:104DFC00252804F10104F2D10023224612F8010BFC
:104E0C00A0F1200110290AD8DFE801F03F09093B85
:104E1C000909090909090937093309092F00A0F102
:104E2C003001092940F2CC802A2800F02381002689
:104E3C002E2800F0D7800021A0F16807122F2CD863
:104E4C00DFE817F076012B0071012B0068012B00B5
:104E5C002B002B002B002B002B002B0027002B00F2
:104E6C002B002B002B002B002700144643F00103D2
:104E7C00C3E7144643F00203BFE7144643F00403B0
:104E8C00BBE7144643F01003B7E7144643F008039E
:104E9C00B3E7607843F4807301326728144600F25C
:104EAC00BF8024289BD9A0F12502422A97D801A7BC
:104EBC0057F822F0A7500020DF4C0020DF4C0020D8
:104ECC00DF4C0020DF4C0020DF4C0020DF4C0020AA
:104EDC00DF4C0020DF4C0020DF4C0020DF4C00209A
:104EEC00DF4C0020DF4C0020DF4C0020DF4C00208A
:104EFC00DF4C0020DF4C0020DF4C0020DF4C00207A
:104F0C00DF4C0020DF4C0020DF4C0020DF4C002069
:104F1C00DF4C0020DF4C0020DF4C0020DF4C002059
:104F2C00DF4C0020DF4C0020DF4C0020DF4C002049
:104F3C00DF4C0020415000207950002041500020CF
:104F4C00DF4C0020DF4C0020DF4C0020DF4C002029
:104F5C00DF4C0020DF4C0020DF4C0020DF4C002019
:104F6C00DF4C0020DF4C0020DF4C0020DF4C002009
:104F7C00DF4C0020DF4C0020DF4C0020DF4C0020F9
:104F8C0035510020DF4C0020DF4C0020DF4C00208E
:104F9C00DF4C0020DF4C0020DF4C0020DF4C0020D9
:104FAC00DF4C0020DF4C002035510020B550002094
:104FBC0035510020415000207950002041500020F4
:104FCC00002606EB860600EB460610781446A0F188
:104FDC0030010929A6F1300602F10102F1D92E287F
:104FEC007FF429AF60781746A0F13001092943F40A
:104FFC00806340F2FD802A2800F0148114460021C1
:10500C00013219E72C46A94501D809F1FF354B4669
:10501C002A4659460020C04720460FB0BDE8F08F05
:10502C00A0F16902D2B20F2A3FF6D9AE4FF0010CB3
:10503C0049F241070CFA02FC1CEA070C40F0E7802D
:10504C000A2A22D0072A7FF4CAAE43F02103059323
:10505C000823049310230391CDF804C002935AF84B
:10506C00043B2A46009359464B464046FFF764F9E9
:10507C000546B9E65AF8046B6078002E1446BCBF9E
:10508C0043F0020376420132D2E6524652F804EB68
:10509C0000299EF8000014BF8A464FF0FF3A0B928D
:1050AC00002800F003827246F2440AE0B14C002062
:1050BC00ACC90020B13F002012F8017F002F00F096
:1050CC00F3809245F8D1AAEB0E020A9213F4806792
:1050DC0004D00A9A8A4228BF0A460A9213F00203A5
:1050EC0000F00F814FF0020C0C96F2462A460E4649
:1050FC00CDF834C01FB1002E00F0C980013E4B46E4
:10510C005946C0471AF8010F0135002800F0BF803E
:10511C002A46EFE760786C287FF4BCAEA07843F4A5
:10512C004073E21CB9E6607843F400730132B4E6D4
:10513C006078682800F0BC8043F080030132ACE654
:10514C00672800F09F80472800F0A980452800F0D0
:10515C00A880CDE903630AF1070A02912AF0070A35
:10516C002A46FAE802674B4659464046CDE90067A5
:10517C00FFF78AF9054637E6462808BF43F02003B7
:10518C00CDE903630AF1070A02912AF0070A2A46BD
:10519C00FAE802674B4659464046CDE90067FFF7EF
:1051AC001FFC054620E62A464B4659462520C0479B
:1051BC00013519E60AF104029B0705F101070A9271
:1051CC0040F182802A464B4659469AF80000C04767
:1051DC00012E88BFAD1940F228813A464B465946FC
:1051EC0020200137C047BD42F7D1DDF828A0FBE5F0
:1051FC00002101EB810100EB410117F8010F30395F
:10520C00A0F13002092AF4D93C467A1C14E66F2826
:10521C003BD040F22381782800F0F5800A2223F05D
:10522C0010030EE05AF8041BA0780234621C21EA29
:10523C00E17101E6582843D0622808BF022240F0F1
:10524C009680580540F1BA8023F00D0313F40070DA
:10525C0040F0ED8013F4807F0AF1040740F01581D3
:10526C00580600F1D58018064CBFBAF80000DAF8E1
:10527C000000CDE904630023CDE9022100902A4609
:10528C00019393E043F4006363E70822D9E7DDE977
:10529C000C6CBCF1000F5BD1DDF82CA0A4E543F441
:1052AC00006343F0200354E7A2EB0E020A920DE7D1
:1052BC00A07843F0C003E21CEFE504460546A2E6E5
:1052CC00102243F02003BCE7012E40F2A8802F46A9
:1052DC006B1ECDF82CA003EB060A3A464B465946FA
:1052EC0020200137C047BA45F7D15246DDF82CA033
:1052FC004B469AF800005946C0473544DDF828A0C3
:10530C0072E50A9A964240F2E6800A9B06EB050A81
:10531C00CDE90CE60A970E466746AAEB030A2A4625
:10532C004B46594620200135C047AA45F7D1DDF838
:10533C0030E031469EF80000BC460D9E0A9F0028C6
:10534C00AAD0731C0A93CFE613F0020700F0BD80BD
:10535C002F460A9B9E429FD93544ED1A3A464B463E
:10536C00594620200137C047AF42F7D194E75F057B
:10537C004BD523F01102900523D4D3050AF1040771
:10538C0073D450063BD4130640F18980BAF900302F
:10539C0083EAE370A0EBE37080B2DB0F01930A2386
:1053AC00CDE904622A460391009002934B4659467C
:1053BC004046FEF7C1FFBA46054615E523F00C033F
:1053CC0044E79FED477B0AF1070A2AF0070ADAF84F
:1053DC0004305AF8080BDF0F002BCDE907628DED76
:1053EC00047B02460691029715DBCDE90023594652
:1053FC002A464B464046FEF7EBFF0546F4E49AF886
:10540C0000301846C9E710221BE723F01002B2E760
:10541C009AF800002DE7424263EB4303E5E72A4686
:10542C004B4659469AF80000C0473D46DDE60492CB
:10543C002A460025CDE907630AF1070A069105956E
:10544C0002952AF0070AFAE802674B46594640468D
:10545C00CDE90067FEF7BCFF0546C5E4692823F0DB
:10546C0010022DD15F0586D583E7DAF80030039161
:10547C000A21029183EAE371A1EBE371DB0FCDE921
:10548C000462CDE900132A4690E7CDE90221CDE96B
:10549C0004630190DAF800302A46009386E7DAF8C4
:1054AC00003083EAE370A0EBE37076E713F48062DC
:1054BC000A923FF449AF9F0705D52F460A9048E75B
:1054CC0013460A22BDE64FF48067002E3FF4E4AE8B
:1054DC0000230A9319E79C46531C0A9304E600BF69
:1054EC000A000000000000008C4610B584B0009348
:1054FC000290134602A94FF0FF320348CDF80CC0BE
:10550C00FFF756FC04B010BDA14C002010B5094AA1
:10551C0084B014684CB1034600914FF0FF3203A9DC
:10552C000548A047012004B010BD00F031F9204619
:10553C0004B010BDACC90020994C002000BEFDE7A2
:10554C00074A0346106838B1064903448B428CBFA6
:10555C004FF0FF3013607047034908461160F3E7C2
:10556C00A4C5002000000820985F022008B5FFF7B2
:10557C00E5FF00BF38B5064C064DFDF76BFBAC42A2
:10558C0004D254F8043B9847AC42FAD338BD00BF60
:10559C0080B6002088B600200368084611461847DC
:1055AC002DE9F043804698F81530084683B0002B5F
:1055BC0045D0002A34DD00241746894622464D1E6C
:1055CC0006E06B780A2B2ED0A74205F1010516D008
:1055DC0026460134002EF4D199F800300A2BF3D171
:1055EC0098F81430002BEFD102211848D8F800306D
:1055FC0001949847A742019A05F10105E8D1974219
:10560C0005DDD8F80030B91A09EB0200984719F8F3
:10561C000630A3F10D03B3FA83F35B0988F8143059
:10562C0003B0BDE8F0832B780D2BCDD0B242DBDA82
:10563C00D8F80030B11A09EB02009847D4E71146AC
:10564C00D8F8003003B0BDE8F043184760AE002036
:10565C0070B50B680C46802B054682B005D05A1CE1
:10566C00234422601D7102B070BD0E4B186878B9CE
:10567C0000230122234422601D7102B070BD2268F8
:10568C00211D0190FFF78CFF019800690028EFD0D5
:10569C000368002BF9D0044B1B68002BEFD083421E
:1056AC00F3D1ECE778BF002090C500202DE9F04F36
:1056BC0083B091461C460D468046FDF7A7F84FF087
:1056CC00FF376FF00046244A821841F100039742DD
:1056DC0076EB03013CBF3A463346204804F092F97E
:1056EC006B1C83462BD044B31D4F1E4B1C68ECB176
:1056FC004FF00A0A1C4E01E02469BCB12368002B50
:10570C00FAD033680BB1A342F6D12A464146204663
:10571C00B847B9F1000FEFD0204601220DF1070177
:10572C008DF807A0B8472469002CE7D1BBF1000F16
:10573C000AD1284603B0BDE8F08F0C4FD5E74046A0
:10574C0003F020FF0546CEE7044804F0ABF92846E9
:10575C0003B0BDE8F08F00BF40420F0038B6002008
:10576C00A154002078BF002090C50020995400203F
:10577C00012310B5044682B0002219460DF1070032
:10578C008DF80740FFF792FF204602B010BD00BF16
:10579C0038B5044603F0F6FE012305461A462046AA
:1057AC002946FFF783FF054B1C682CB1636803B1D6
:1057BC0098472469002CF9D1284638BD78BF0020C1
:1057CC002DE9F041A2B00E460546FDF71FF84FF04B
:1057DC00FF3C6FF00044244A821841F100039445C9
:1057EC0074EB03013CBF23466246204804F00AF9DF
:1057FC000024334607462A461D4801A90194FFF7A9
:10580C0073FE1C4E019B80463468BBB1002C28D023
:10581C00194D01E0246974B12368002BFAD02B6870
:10582C000BB19C42F6D12046019A02A9FFF7B8FEB3
:10583C002469002CF0D12346346801932CB16368A1
:10584C0003B198472469002CF9D11FB9404622B006
:10585C00BDE8F081054804F025F9404622B0BDE8CA
:10586C00F0810194F1E700BF40420F0038B60020F0
:10587C005155002078BF002090C500200FB400B512
:10588C0083B004A951F8040B0191FFF799FF03B001
:10589C005DF804EB04B0704700B545F247308BB0AF
:1058AC00FDF796F901220346092101A89847054AFC
:1058BC0005AB03A813F8011D834202F8011FF9D1AF
:1058CC000BB000BDD7CB0020012910B504461ED06B
:1058DC004FF0000C1148013904F1FF3E6FEA0C0245
:1058EC004FEA5C03C35C02F001029200134103F027
:1058FC000F03092B0CF1010CD4BF303337338C451B
:10590C000EF8013F06D0BCF1100FE7D11034002384
:10591C00237010BD00236444237010BDD8CB00202D
:10592C0010B5044682B021461048FFF7A7FF0520AA
:10593C00FDF736F80146B1FBF4F204FB1213002B11
:10594C0018BF01320A480192FFF798FF0949019AE2
:10595C000B7A120203EB4303DB0003F1A04303F5C4
:10596C000013C3F8C8204C6002B010BDE8AB002097
:10597C0000AC0020CC5E022003464FF0AA4130B5AB
:10598C005D68DFF858E0134805F1200345F810EB8B
:10599C0001224FF0240C45E903100F4C45F8041C70
:1059AC0007E00132C02A43E9044143E9020110D067
:1059BC0010331F2AF5D84CFA02F56D0705F0005587
:1059CC0045F0AA4543E9044543E902050132103389
:1059DC00EFE730BD69555500C9555500395555008F
:1059EC00F0B51F464FF4803387B0D41C0293D3011B
:1059FC0043EA043323F0C0430393BB0203F4F8439C
:105A0C0043F0005305930E4B0546049302AB0C4632
:105A1C0002F01F0600F0BAFA01233A462146009321
:105A2C00284600F06DFA21462846002200F036FA8E
:105A3C0004EB440405EBC405C5F8D86007B0F0BD11
:105A4C0000000E402DE9F04F83B001900C46002071
:105A5C004FF0010E02255C4E06F58067002345F2DF
:105A6C0055519C460EFA03F2024205D05A0005FA33
:105A7C0002F28CF0010C11430133082BF2D141EAF4
:105A8C000C4146F8041FB74200F10100E6D1062193
:105A9C002078FCF761F8A578DFF850B129464B481F
:105AAC008BF8085000F0BAF94949484800F0DAF987
:105ABC002946024623784548FFF792FF0C20FEF753
:105ACC00ABFA0746002877D04FF440610120FEF76F
